{
  "_format": "hh-sol-artifact-1",
  "contractName": "NFT",
  "sourceName": "contracts/NFT.sol",
  "abi": [
    {
      "inputs": [
        {
          "internalType": "address",
          "name": "marketplaceAddress",
          "type": "address"
        }
      ],
      "stateMutability": "nonpayable",
      "type": "constructor"
    },
    {
      "anonymous": false,
      "inputs": [
        {
          "indexed": true,
          "internalType": "address",
          "name": "owner",
          "type": "address"
        },
        {
          "indexed": true,
          "internalType": "address",
          "name": "approved",
          "type": "address"
        },
        {
          "indexed": true,
          "internalType": "uint256",
          "name": "tokenId",
          "type": "uint256"
        }
      ],
      "name": "Approval",
      "type": "event"
    },
    {
      "anonymous": false,
      "inputs": [
        {
          "indexed": true,
          "internalType": "address",
          "name": "owner",
          "type": "address"
        },
        {
          "indexed": true,
          "internalType": "address",
          "name": "operator",
          "type": "address"
        },
        {
          "indexed": false,
          "internalType": "bool",
          "name": "approved",
          "type": "bool"
        }
      ],
      "name": "ApprovalForAll",
      "type": "event"
    },
    {
      "anonymous": false,
      "inputs": [
        {
          "indexed": true,
          "internalType": "uint256",
          "name": "tokenId",
          "type": "uint256"
        },
        {
          "indexed": true,
          "internalType": "string",
          "name": "tokenURI",
          "type": "string"
        }
      ],
      "name": "NFTCreated",
      "type": "event"
    },
    {
      "anonymous": false,
      "inputs": [
        {
          "indexed": true,
          "internalType": "address",
          "name": "previousOwner",
          "type": "address"
        },
        {
          "indexed": true,
          "internalType": "address",
          "name": "newOwner",
          "type": "address"
        }
      ],
      "name": "OwnershipTransferred",
      "type": "event"
    },
    {
      "anonymous": false,
      "inputs": [
        {
          "indexed": true,
          "internalType": "address",
          "name": "from",
          "type": "address"
        },
        {
          "indexed": true,
          "internalType": "address",
          "name": "to",
          "type": "address"
        },
        {
          "indexed": true,
          "internalType": "uint256",
          "name": "tokenId",
          "type": "uint256"
        }
      ],
      "name": "Transfer",
      "type": "event"
    },
    {
      "inputs": [
        {
          "internalType": "address",
          "name": "to",
          "type": "address"
        },
        {
          "internalType": "uint256",
          "name": "tokenId",
          "type": "uint256"
        }
      ],
      "name": "approve",
      "outputs": [],
      "stateMutability": "nonpayable",
      "type": "function"
    },
    {
      "inputs": [
        {
          "internalType": "address",
          "name": "owner",
          "type": "address"
        }
      ],
      "name": "balanceOf",
      "outputs": [
        {
          "internalType": "uint256",
          "name": "",
          "type": "uint256"
        }
      ],
      "stateMutability": "view",
      "type": "function"
    },
    {
      "inputs": [
        {
          "internalType": "string",
          "name": "tokenURI",
          "type": "string"
        }
      ],
      "name": "createToken",
      "outputs": [
        {
          "internalType": "uint256",
          "name": "",
          "type": "uint256"
        }
      ],
      "stateMutability": "nonpayable",
      "type": "function"
    },
    {
      "inputs": [
        {
          "internalType": "string",
          "name": "tokenURI",
          "type": "string"
        }
      ],
      "name": "createTokenWithCharge",
      "outputs": [
        {
          "internalType": "uint256",
          "name": "",
          "type": "uint256"
        }
      ],
      "stateMutability": "payable",
      "type": "function"
    },
    {
      "inputs": [
        {
          "internalType": "uint256",
          "name": "tokenId",
          "type": "uint256"
        }
      ],
      "name": "getApproved",
      "outputs": [
        {
          "internalType": "address",
          "name": "",
          "type": "address"
        }
      ],
      "stateMutability": "view",
      "type": "function"
    },
    {
      "inputs": [],
      "name": "getTest",
      "outputs": [
        {
          "internalType": "string",
          "name": "",
          "type": "string"
        }
      ],
      "stateMutability": "pure",
      "type": "function"
    },
    {
      "inputs": [
        {
          "internalType": "address",
          "name": "owner",
          "type": "address"
        },
        {
          "internalType": "address",
          "name": "operator",
          "type": "address"
        }
      ],
      "name": "isApprovedForAll",
      "outputs": [
        {
          "internalType": "bool",
          "name": "",
          "type": "bool"
        }
      ],
      "stateMutability": "view",
      "type": "function"
    },
    {
      "inputs": [],
      "name": "name",
      "outputs": [
        {
          "internalType": "string",
          "name": "",
          "type": "string"
        }
      ],
      "stateMutability": "view",
      "type": "function"
    },
    {
      "inputs": [],
      "name": "owner",
      "outputs": [
        {
          "internalType": "address",
          "name": "",
          "type": "address"
        }
      ],
      "stateMutability": "view",
      "type": "function"
    },
    {
      "inputs": [
        {
          "internalType": "uint256",
          "name": "tokenId",
          "type": "uint256"
        }
      ],
      "name": "ownerOf",
      "outputs": [
        {
          "internalType": "address",
          "name": "",
          "type": "address"
        }
      ],
      "stateMutability": "view",
      "type": "function"
    },
    {
      "inputs": [],
      "name": "renounceOwnership",
      "outputs": [],
      "stateMutability": "nonpayable",
      "type": "function"
    },
    {
      "inputs": [
        {
          "internalType": "address",
          "name": "from",
          "type": "address"
        },
        {
          "internalType": "address",
          "name": "to",
          "type": "address"
        },
        {
          "internalType": "uint256",
          "name": "tokenId",
          "type": "uint256"
        }
      ],
      "name": "safeTransferFrom",
      "outputs": [],
      "stateMutability": "nonpayable",
      "type": "function"
    },
    {
      "inputs": [
        {
          "internalType": "address",
          "name": "from",
          "type": "address"
        },
        {
          "internalType": "address",
          "name": "to",
          "type": "address"
        },
        {
          "internalType": "uint256",
          "name": "tokenId",
          "type": "uint256"
        },
        {
          "internalType": "bytes",
          "name": "_data",
          "type": "bytes"
        }
      ],
      "name": "safeTransferFrom",
      "outputs": [],
      "stateMutability": "nonpayable",
      "type": "function"
    },
    {
      "inputs": [
        {
          "internalType": "address",
          "name": "operator",
          "type": "address"
        },
        {
          "internalType": "bool",
          "name": "approved",
          "type": "bool"
        }
      ],
      "name": "setApprovalForAll",
      "outputs": [],
      "stateMutability": "nonpayable",
      "type": "function"
    },
    {
      "inputs": [
        {
          "internalType": "bytes4",
          "name": "interfaceId",
          "type": "bytes4"
        }
      ],
      "name": "supportsInterface",
      "outputs": [
        {
          "internalType": "bool",
          "name": "",
          "type": "bool"
        }
      ],
      "stateMutability": "view",
      "type": "function"
    },
    {
      "inputs": [],
      "name": "symbol",
      "outputs": [
        {
          "internalType": "string",
          "name": "",
          "type": "string"
        }
      ],
      "stateMutability": "view",
      "type": "function"
    },
    {
      "inputs": [
        {
          "internalType": "uint256",
          "name": "tokenId",
          "type": "uint256"
        }
      ],
      "name": "tokenURI",
      "outputs": [
        {
          "internalType": "string",
          "name": "",
          "type": "string"
        }
      ],
      "stateMutability": "view",
      "type": "function"
    },
    {
      "inputs": [
        {
          "internalType": "address",
          "name": "from",
          "type": "address"
        },
        {
          "internalType": "address",
          "name": "to",
          "type": "address"
        },
        {
          "internalType": "uint256",
          "name": "tokenId",
          "type": "uint256"
        }
      ],
      "name": "transferFrom",
      "outputs": [],
      "stateMutability": "nonpayable",
      "type": "function"
    },
    {
      "inputs": [
        {
          "internalType": "address",
          "name": "newOwner",
          "type": "address"
        }
      ],
      "name": "transferOwnership",
      "outputs": [],
      "stateMutability": "nonpayable",
      "type": "function"
    }
  ],
  "bytecode": "0x6080604052670de0b6b3a7640000600a553480156200001d57600080fd5b5060405162001d6c38038062001d6c8339810160408190526200004091620001e2565b60408051808201825260098152684d657461766572736560b81b6020808301918252835180850190945260048452631351551560e21b9084015281519192916200008d916000916200013c565b508051620000a39060019060208401906200013c565b505050620000c0620000ba620000e660201b60201c565b620000ea565b600980546001600160a01b0319166001600160a01b03929092169190911790556200024f565b3390565b600780546001600160a01b038381166001600160a01b0319831681179093556040519116919082907f8be0079c531659141344cd1fd0a4f28419497f9722a3daafe3b4186f6b6457e090600090a35050565b8280546200014a9062000212565b90600052602060002090601f0160209004810192826200016e5760008555620001b9565b82601f106200018957805160ff1916838001178555620001b9565b82800160010185558215620001b9579182015b82811115620001b95782518255916020019190600101906200019c565b50620001c7929150620001cb565b5090565b5b80821115620001c75760008155600101620001cc565b600060208284031215620001f4578081fd5b81516001600160a01b03811681146200020b578182fd5b9392505050565b600181811c908216806200022757607f821691505b602082108114156200024957634e487b7160e01b600052602260045260246000fd5b50919050565b611b0d806200025f6000396000f3fe6080604052600436106101145760003560e01c8063715018a6116100a0578063b88d4fde11610064578063b88d4fde1461030f578063c87b56dd1461032f578063e985e9c51461034f578063f2fde38b14610398578063fbeb831d146103b857610114565b8063715018a6146102785780638da5cb5b1461028d57806395d89b41146102ab578063a22cb465146102c0578063a8cd0a80146102e057610114565b806323b872dd116100e757806323b872dd146101ca57806342842e0e146101ea57806345576f941461020a5780636352211e1461023857806370a082311461025857610114565b806301ffc9a71461011957806306fdde031461014e578063081812fc14610170578063095ea7b3146101a8575b600080fd5b34801561012557600080fd5b50610139610134366004611771565b6103cb565b60405190151581526020015b60405180910390f35b34801561015a57600080fd5b5061016361041f565b60405161014591906118bb565b34801561017c57600080fd5b5061019061018b3660046117ef565b6104b1565b6040516001600160a01b039091168152602001610145565b3480156101b457600080fd5b506101c86101c3366004611748565b61053e565b005b3480156101d657600080fd5b506101c86101e536600461165a565b610654565b3480156101f657600080fd5b506101c861020536600461165a565b610685565b34801561021657600080fd5b5061022a6102253660046117a9565b6106a0565b604051908152602001610145565b34801561024457600080fd5b506101906102533660046117ef565b610759565b34801561026457600080fd5b5061022a61027336600461160e565b6107d0565b34801561028457600080fd5b506101c8610857565b34801561029957600080fd5b506007546001600160a01b0316610190565b3480156102b757600080fd5b5061016361088d565b3480156102cc57600080fd5b506101c86102db36600461170e565b61089c565b3480156102ec57600080fd5b5060408051808201909152600681526548656c6c6f7760d01b6020820152610163565b34801561031b57600080fd5b506101c861032a366004611695565b61096e565b34801561033b57600080fd5b5061016361034a3660046117ef565b6109a6565b34801561035b57600080fd5b5061013961036a366004611628565b6001600160a01b03918216600090815260056020908152604080832093909416825291909152205460ff1690565b3480156103a457600080fd5b506101c86103b336600461160e565b610b1e565b61022a6103c63660046117a9565b610bb9565b60006001600160e01b031982166380ac58cd60e01b14806103fc57506001600160e01b03198216635b5e139f60e01b145b8061041757506301ffc9a760e01b6001600160e01b03198316145b90505b919050565b60606000805461042e90611a15565b80601f016020809104026020016040519081016040528092919081815260200182805461045a90611a15565b80156104a75780601f1061047c576101008083540402835291602001916104a7565b820191906000526020600020905b81548152906001019060200180831161048a57829003601f168201915b5050505050905090565b60006104bc82610c94565b6105225760405162461bcd60e51b815260206004820152602c60248201527f4552433732313a20617070726f76656420717565727920666f72206e6f6e657860448201526b34b9ba32b73a103a37b5b2b760a11b60648201526084015b60405180910390fd5b506000908152600460205260409020546001600160a01b031690565b600061054982610759565b9050806001600160a01b0316836001600160a01b031614156105b75760405162461bcd60e51b815260206004820152602160248201527f4552433732313a20617070726f76616c20746f2063757272656e74206f776e656044820152603960f91b6064820152608401610519565b336001600160a01b03821614806105d357506105d3813361036a565b6106455760405162461bcd60e51b815260206004820152603860248201527f4552433732313a20617070726f76652063616c6c6572206973206e6f74206f7760448201527f6e6572206e6f7220617070726f76656420666f7220616c6c00000000000000006064820152608401610519565b61064f8383610cb1565b505050565b61065e3382610d1f565b61067a5760405162461bcd60e51b815260040161051990611955565b61064f838383610e05565b61064f8383836040518060200160405280600081525061096e565b6007546000906001600160a01b031633146106cd5760405162461bcd60e51b815260040161051990611920565b6106db600880546001019055565b60006106e660085490565b90506106f23382610fa5565b6106fc81846110d8565b600954610713906001600160a01b0316600161089c565b826040516107219190611833565b6040519081900381209082907fe883eeefa7f620d513eac93479fc9f54ce03f9f4a72c0d818311a9d19556e87990600090a392915050565b6000818152600260205260408120546001600160a01b0316806104175760405162461bcd60e51b815260206004820152602960248201527f4552433732313a206f776e657220717565727920666f72206e6f6e657869737460448201526832b73a103a37b5b2b760b91b6064820152608401610519565b60006001600160a01b03821661083b5760405162461bcd60e51b815260206004820152602a60248201527f4552433732313a2062616c616e636520717565727920666f7220746865207a65604482015269726f206164647265737360b01b6064820152608401610519565b506001600160a01b031660009081526003602052604090205490565b6007546001600160a01b031633146108815760405162461bcd60e51b815260040161051990611920565b61088b6000611163565b565b60606001805461042e90611a15565b6001600160a01b0382163314156108f55760405162461bcd60e51b815260206004820152601960248201527f4552433732313a20617070726f766520746f2063616c6c6572000000000000006044820152606401610519565b3360008181526005602090815260408083206001600160a01b0387168085529252909120805460ff1916841515179055906001600160a01b03167f17307eab39ab6107e8899845ad3d59bd9653f200f220920489ca2b5937696c3183604051610962911515815260200190565b60405180910390a35050565b6109783383610d1f565b6109945760405162461bcd60e51b815260040161051990611955565b6109a0848484846111b5565b50505050565b60606109b182610c94565b610a175760405162461bcd60e51b815260206004820152603160248201527f45524337323155524953746f726167653a2055524920717565727920666f72206044820152703737b732bc34b9ba32b73a103a37b5b2b760791b6064820152608401610519565b60008281526006602052604081208054610a3090611a15565b80601f0160208091040260200160405190810160405280929190818152602001828054610a5c90611a15565b8015610aa95780601f10610a7e57610100808354040283529160200191610aa9565b820191906000526020600020905b815481529060010190602001808311610a8c57829003601f168201915b505050505090506000610ac760408051602081019091526000815290565b9050805160001415610adb5750905061041a565b815115610b0d578082604051602001610af592919061184f565b6040516020818303038152906040529250505061041a565b610b16846111e8565b949350505050565b6007546001600160a01b03163314610b485760405162461bcd60e51b815260040161051990611920565b6001600160a01b038116610bad5760405162461bcd60e51b815260206004820152602660248201527f4f776e61626c653a206e6577206f776e657220697320746865207a65726f206160448201526564647265737360d01b6064820152608401610519565b610bb681611163565b50565b6000600a543414610c035760405162461bcd60e51b81526020600482015260146024820152731b5a5b9d081c1c9a58d9481a5b98dbdc9c9958dd60621b6044820152606401610519565b610c11600880546001019055565b6000610c1c60085490565b9050610c283382610fa5565b610c3281846110d8565b600954610c49906001600160a01b0316600161089c565b600754600a546040516001600160a01b039092169181156108fc0291906000818181858888f19350505050158015610c85573d6000803e3d6000fd5b50826040516107219190611833565b6000908152600260205260409020546001600160a01b0316151590565b600081815260046020526040902080546001600160a01b0319166001600160a01b0384169081179091558190610ce682610759565b6001600160a01b03167f8c5be1e5ebec7d5bd14f71427d1e84f3dd0314c0f7b2291e5b200ac8c7c3b92560405160405180910390a45050565b6000610d2a82610c94565b610d8b5760405162461bcd60e51b815260206004820152602c60248201527f4552433732313a206f70657261746f7220717565727920666f72206e6f6e657860448201526b34b9ba32b73a103a37b5b2b760a11b6064820152608401610519565b6000610d9683610759565b9050806001600160a01b0316846001600160a01b03161480610dd15750836001600160a01b0316610dc6846104b1565b6001600160a01b0316145b80610b1657506001600160a01b0380821660009081526005602090815260408083209388168352929052205460ff16610b16565b826001600160a01b0316610e1882610759565b6001600160a01b031614610e805760405162461bcd60e51b815260206004820152602960248201527f4552433732313a207472616e73666572206f6620746f6b656e2074686174206960448201526839903737ba1037bbb760b91b6064820152608401610519565b6001600160a01b038216610ee25760405162461bcd60e51b8152602060048201526024808201527f4552433732313a207472616e7366657220746f20746865207a65726f206164646044820152637265737360e01b6064820152608401610519565b610eed600082610cb1565b6001600160a01b0383166000908152600360205260408120805460019290610f169084906119d2565b90915550506001600160a01b0382166000908152600360205260408120805460019290610f449084906119a6565b909155505060008181526002602052604080822080546001600160a01b0319166001600160a01b0386811691821790925591518493918716917fddf252ad1be2c89b69c2b068fc378daa952ba7f163c4a11628f55a4df523b3ef91a4505050565b6001600160a01b038216610ffb5760405162461bcd60e51b815260206004820181905260248201527f4552433732313a206d696e7420746f20746865207a65726f20616464726573736044820152606401610519565b61100481610c94565b156110515760405162461bcd60e51b815260206004820152601c60248201527f4552433732313a20746f6b656e20616c7265616479206d696e746564000000006044820152606401610519565b6001600160a01b038216600090815260036020526040812080546001929061107a9084906119a6565b909155505060008181526002602052604080822080546001600160a01b0319166001600160a01b03861690811790915590518392907fddf252ad1be2c89b69c2b068fc378daa952ba7f163c4a11628f55a4df523b3ef908290a45050565b6110e182610c94565b6111445760405162461bcd60e51b815260206004820152602e60248201527f45524337323155524953746f726167653a2055524920736574206f66206e6f6e60448201526d32bc34b9ba32b73a103a37b5b2b760911b6064820152608401610519565b6000828152600660209081526040909120825161064f928401906114e8565b600780546001600160a01b038381166001600160a01b0319831681179093556040519116919082907f8be0079c531659141344cd1fd0a4f28419497f9722a3daafe3b4186f6b6457e090600090a35050565b6111c0848484610e05565b6111cc848484846112c0565b6109a05760405162461bcd60e51b8152600401610519906118ce565b60606111f382610c94565b6112575760405162461bcd60e51b815260206004820152602f60248201527f4552433732314d657461646174613a2055524920717565727920666f72206e6f60448201526e3732bc34b9ba32b73a103a37b5b2b760891b6064820152608401610519565b600061126e60408051602081019091526000815290565b9050600081511161128e57604051806020016040528060008152506112b9565b80611298846113cd565b6040516020016112a992919061184f565b6040516020818303038152906040525b9392505050565b60006001600160a01b0384163b156113c257604051630a85bd0160e11b81526001600160a01b0385169063150b7a029061130490339089908890889060040161187e565b602060405180830381600087803b15801561131e57600080fd5b505af192505050801561134e575060408051601f3d908101601f1916820190925261134b9181019061178d565b60015b6113a8573d80801561137c576040519150601f19603f3d011682016040523d82523d6000602084013e611381565b606091505b5080516113a05760405162461bcd60e51b8152600401610519906118ce565b805181602001fd5b6001600160e01b031916630a85bd0160e11b149050610b16565b506001949350505050565b6060816113f257506040805180820190915260018152600360fc1b602082015261041a565b8160005b811561141c578061140681611a50565b91506114159050600a836119be565b91506113f6565b60008167ffffffffffffffff81111561144557634e487b7160e01b600052604160045260246000fd5b6040519080825280601f01601f19166020018201604052801561146f576020820181803683370190505b5090505b8415610b16576114846001836119d2565b9150611491600a86611a6b565b61149c9060306119a6565b60f81b8183815181106114bf57634e487b7160e01b600052603260045260246000fd5b60200101906001600160f81b031916908160001a9053506114e1600a866119be565b9450611473565b8280546114f490611a15565b90600052602060002090601f016020900481019282611516576000855561155c565b82601f1061152f57805160ff191683800117855561155c565b8280016001018555821561155c579182015b8281111561155c578251825591602001919060010190611541565b5061156892915061156c565b5090565b5b80821115611568576000815560010161156d565b600067ffffffffffffffff8084111561159c5761159c611aab565b604051601f8501601f19908116603f011681019082821181831017156115c4576115c4611aab565b816040528093508581528686860111156115dd57600080fd5b858560208301376000602087830101525050509392505050565b80356001600160a01b038116811461041a57600080fd5b60006020828403121561161f578081fd5b6112b9826115f7565b6000806040838503121561163a578081fd5b611643836115f7565b9150611651602084016115f7565b90509250929050565b60008060006060848603121561166e578081fd5b611677846115f7565b9250611685602085016115f7565b9150604084013590509250925092565b600080600080608085870312156116aa578081fd5b6116b3856115f7565b93506116c1602086016115f7565b925060408501359150606085013567ffffffffffffffff8111156116e3578182fd5b8501601f810187136116f3578182fd5b61170287823560208401611581565b91505092959194509250565b60008060408385031215611720578182fd5b611729836115f7565b91506020830135801515811461173d578182fd5b809150509250929050565b6000806040838503121561175a578182fd5b611763836115f7565b946020939093013593505050565b600060208284031215611782578081fd5b81356112b981611ac1565b60006020828403121561179e578081fd5b81516112b981611ac1565b6000602082840312156117ba578081fd5b813567ffffffffffffffff8111156117d0578182fd5b8201601f810184136117e0578182fd5b610b1684823560208401611581565b600060208284031215611800578081fd5b5035919050565b6000815180845261181f8160208601602086016119e9565b601f01601f19169290920160200192915050565b600082516118458184602087016119e9565b9190910192915050565b600083516118618184602088016119e9565b8351908301906118758183602088016119e9565b01949350505050565b6001600160a01b03858116825284166020820152604081018390526080606082018190526000906118b190830184611807565b9695505050505050565b6000602082526112b96020830184611807565b60208082526032908201527f4552433732313a207472616e7366657220746f206e6f6e20455243373231526560408201527131b2b4bb32b91034b6b83632b6b2b73a32b960711b606082015260800190565b6020808252818101527f4f776e61626c653a2063616c6c6572206973206e6f7420746865206f776e6572604082015260600190565b60208082526031908201527f4552433732313a207472616e736665722063616c6c6572206973206e6f74206f6040820152701ddb995c881b9bdc88185c1c1c9bdd9959607a1b606082015260800190565b600082198211156119b9576119b9611a7f565b500190565b6000826119cd576119cd611a95565b500490565b6000828210156119e4576119e4611a7f565b500390565b60005b83811015611a045781810151838201526020016119ec565b838111156109a05750506000910152565b600181811c90821680611a2957607f821691505b60208210811415611a4a57634e487b7160e01b600052602260045260246000fd5b50919050565b6000600019821415611a6457611a64611a7f565b5060010190565b600082611a7a57611a7a611a95565b500690565b634e487b7160e01b600052601160045260246000fd5b634e487b7160e01b600052601260045260246000fd5b634e487b7160e01b600052604160045260246000fd5b6001600160e01b031981168114610bb657600080fdfea264697066735822122094dff5e83085623f3f4dbc82af7910c708afb19722e5bea9f58a134ed5cdc8ed64736f6c63430008030033",
  "linkReferences": {},
  "deployedLinkReferences": {}
}