{
  "_format": "hh-sol-artifact-1",
  "contractName": "NFT",
  "sourceName": "contracts/NFT.sol",
  "abi": [
    {
      "inputs": [
        {
          "internalType": "address",
          "name": "marketplaceAddress",
          "type": "address"
        }
      ],
      "stateMutability": "nonpayable",
      "type": "constructor"
    },
    {
      "anonymous": false,
      "inputs": [
        {
          "indexed": true,
          "internalType": "address",
          "name": "owner",
          "type": "address"
        },
        {
          "indexed": true,
          "internalType": "address",
          "name": "approved",
          "type": "address"
        },
        {
          "indexed": true,
          "internalType": "uint256",
          "name": "tokenId",
          "type": "uint256"
        }
      ],
      "name": "Approval",
      "type": "event"
    },
    {
      "anonymous": false,
      "inputs": [
        {
          "indexed": true,
          "internalType": "address",
          "name": "owner",
          "type": "address"
        },
        {
          "indexed": true,
          "internalType": "address",
          "name": "operator",
          "type": "address"
        },
        {
          "indexed": false,
          "internalType": "bool",
          "name": "approved",
          "type": "bool"
        }
      ],
      "name": "ApprovalForAll",
      "type": "event"
    },
    {
      "anonymous": false,
      "inputs": [
        {
          "indexed": true,
          "internalType": "uint256",
          "name": "tokenId",
          "type": "uint256"
        },
        {
          "indexed": true,
          "internalType": "string",
          "name": "tokenURI",
          "type": "string"
        }
      ],
      "name": "NFTCreated",
      "type": "event"
    },
    {
      "anonymous": false,
      "inputs": [
        {
          "indexed": true,
          "internalType": "address",
          "name": "previousOwner",
          "type": "address"
        },
        {
          "indexed": true,
          "internalType": "address",
          "name": "newOwner",
          "type": "address"
        }
      ],
      "name": "OwnershipTransferred",
      "type": "event"
    },
    {
      "anonymous": false,
      "inputs": [
        {
          "indexed": true,
          "internalType": "address",
          "name": "from",
          "type": "address"
        },
        {
          "indexed": true,
          "internalType": "address",
          "name": "to",
          "type": "address"
        },
        {
          "indexed": true,
          "internalType": "uint256",
          "name": "tokenId",
          "type": "uint256"
        }
      ],
      "name": "Transfer",
      "type": "event"
    },
    {
      "inputs": [
        {
          "internalType": "address",
          "name": "to",
          "type": "address"
        },
        {
          "internalType": "uint256",
          "name": "tokenId",
          "type": "uint256"
        }
      ],
      "name": "approve",
      "outputs": [],
      "stateMutability": "nonpayable",
      "type": "function"
    },
    {
      "inputs": [
        {
          "internalType": "address",
          "name": "owner",
          "type": "address"
        }
      ],
      "name": "balanceOf",
      "outputs": [
        {
          "internalType": "uint256",
          "name": "",
          "type": "uint256"
        }
      ],
      "stateMutability": "view",
      "type": "function"
    },
    {
      "inputs": [
        {
          "internalType": "string",
          "name": "tokenURI",
          "type": "string"
        }
      ],
      "name": "createToken",
      "outputs": [
        {
          "internalType": "uint256",
          "name": "",
          "type": "uint256"
        }
      ],
      "stateMutability": "nonpayable",
      "type": "function"
    },
    {
      "inputs": [
        {
          "internalType": "string",
          "name": "tokenURI",
          "type": "string"
        }
      ],
      "name": "createTokenOnlyOwner",
      "outputs": [
        {
          "internalType": "uint256",
          "name": "",
          "type": "uint256"
        }
      ],
      "stateMutability": "nonpayable",
      "type": "function"
    },
    {
      "inputs": [
        {
          "internalType": "string",
          "name": "tokenURI",
          "type": "string"
        }
      ],
      "name": "createTokenWithCharge",
      "outputs": [
        {
          "internalType": "uint256",
          "name": "",
          "type": "uint256"
        }
      ],
      "stateMutability": "payable",
      "type": "function"
    },
    {
      "inputs": [
        {
          "internalType": "uint256",
          "name": "tokenId",
          "type": "uint256"
        }
      ],
      "name": "getApproved",
      "outputs": [
        {
          "internalType": "address",
          "name": "",
          "type": "address"
        }
      ],
      "stateMutability": "view",
      "type": "function"
    },
    {
      "inputs": [],
      "name": "getTest",
      "outputs": [
        {
          "internalType": "string",
          "name": "",
          "type": "string"
        }
      ],
      "stateMutability": "pure",
      "type": "function"
    },
    {
      "inputs": [
        {
          "internalType": "address",
          "name": "owner",
          "type": "address"
        },
        {
          "internalType": "address",
          "name": "operator",
          "type": "address"
        }
      ],
      "name": "isApprovedForAll",
      "outputs": [
        {
          "internalType": "bool",
          "name": "",
          "type": "bool"
        }
      ],
      "stateMutability": "view",
      "type": "function"
    },
    {
      "inputs": [],
      "name": "name",
      "outputs": [
        {
          "internalType": "string",
          "name": "",
          "type": "string"
        }
      ],
      "stateMutability": "view",
      "type": "function"
    },
    {
      "inputs": [],
      "name": "owner",
      "outputs": [
        {
          "internalType": "address",
          "name": "",
          "type": "address"
        }
      ],
      "stateMutability": "view",
      "type": "function"
    },
    {
      "inputs": [
        {
          "internalType": "uint256",
          "name": "tokenId",
          "type": "uint256"
        }
      ],
      "name": "ownerOf",
      "outputs": [
        {
          "internalType": "address",
          "name": "",
          "type": "address"
        }
      ],
      "stateMutability": "view",
      "type": "function"
    },
    {
      "inputs": [],
      "name": "renounceOwnership",
      "outputs": [],
      "stateMutability": "nonpayable",
      "type": "function"
    },
    {
      "inputs": [
        {
          "internalType": "address",
          "name": "from",
          "type": "address"
        },
        {
          "internalType": "address",
          "name": "to",
          "type": "address"
        },
        {
          "internalType": "uint256",
          "name": "tokenId",
          "type": "uint256"
        }
      ],
      "name": "safeTransferFrom",
      "outputs": [],
      "stateMutability": "nonpayable",
      "type": "function"
    },
    {
      "inputs": [
        {
          "internalType": "address",
          "name": "from",
          "type": "address"
        },
        {
          "internalType": "address",
          "name": "to",
          "type": "address"
        },
        {
          "internalType": "uint256",
          "name": "tokenId",
          "type": "uint256"
        },
        {
          "internalType": "bytes",
          "name": "_data",
          "type": "bytes"
        }
      ],
      "name": "safeTransferFrom",
      "outputs": [],
      "stateMutability": "nonpayable",
      "type": "function"
    },
    {
      "inputs": [
        {
          "internalType": "address",
          "name": "operator",
          "type": "address"
        },
        {
          "internalType": "bool",
          "name": "approved",
          "type": "bool"
        }
      ],
      "name": "setApprovalForAll",
      "outputs": [],
      "stateMutability": "nonpayable",
      "type": "function"
    },
    {
      "inputs": [
        {
          "internalType": "bytes4",
          "name": "interfaceId",
          "type": "bytes4"
        }
      ],
      "name": "supportsInterface",
      "outputs": [
        {
          "internalType": "bool",
          "name": "",
          "type": "bool"
        }
      ],
      "stateMutability": "view",
      "type": "function"
    },
    {
      "inputs": [],
      "name": "symbol",
      "outputs": [
        {
          "internalType": "string",
          "name": "",
          "type": "string"
        }
      ],
      "stateMutability": "view",
      "type": "function"
    },
    {
      "inputs": [
        {
          "internalType": "uint256",
          "name": "tokenId",
          "type": "uint256"
        }
      ],
      "name": "tokenURI",
      "outputs": [
        {
          "internalType": "string",
          "name": "",
          "type": "string"
        }
      ],
      "stateMutability": "view",
      "type": "function"
    },
    {
      "inputs": [
        {
          "internalType": "address",
          "name": "from",
          "type": "address"
        },
        {
          "internalType": "address",
          "name": "to",
          "type": "address"
        },
        {
          "internalType": "uint256",
          "name": "tokenId",
          "type": "uint256"
        }
      ],
      "name": "transferFrom",
      "outputs": [],
      "stateMutability": "nonpayable",
      "type": "function"
    },
    {
      "inputs": [
        {
          "internalType": "address",
          "name": "newOwner",
          "type": "address"
        }
      ],
      "name": "transferOwnership",
      "outputs": [],
      "stateMutability": "nonpayable",
      "type": "function"
    }
  ],
  "bytecode": "0x6080604052670de0b6b3a7640000600a553480156200001d57600080fd5b5060405162001da738038062001da78339810160408190526200004091620001e2565b60408051808201825260098152684d657461766572736560b81b6020808301918252835180850190945260048452631351551560e21b9084015281519192916200008d916000916200013c565b508051620000a39060019060208401906200013c565b505050620000c0620000ba620000e660201b60201c565b620000ea565b600980546001600160a01b0319166001600160a01b03929092169190911790556200024f565b3390565b600780546001600160a01b038381166001600160a01b0319831681179093556040519116919082907f8be0079c531659141344cd1fd0a4f28419497f9722a3daafe3b4186f6b6457e090600090a35050565b8280546200014a9062000212565b90600052602060002090601f0160209004810192826200016e5760008555620001b9565b82601f106200018957805160ff1916838001178555620001b9565b82800160010185558215620001b9579182015b82811115620001b95782518255916020019190600101906200019c565b50620001c7929150620001cb565b5090565b5b80821115620001c75760008155600101620001cc565b600060208284031215620001f4578081fd5b81516001600160a01b03811681146200020b578182fd5b9392505050565b600181811c908216806200022757607f821691505b602082108114156200024957634e487b7160e01b600052602260045260246000fd5b50919050565b611b48806200025f6000396000f3fe60806040526004361061011f5760003560e01c80637732eeef116100a0578063b88d4fde11610064578063b88d4fde1461033a578063c87b56dd1461035a578063e985e9c51461037a578063f2fde38b146103c3578063fbeb831d146103e35761011f565b80637732eeef146102985780638da5cb5b146102b857806395d89b41146102d6578063a22cb465146102eb578063a8cd0a801461030b5761011f565b806342842e0e116100e757806342842e0e146101f557806345576f94146102155780636352211e1461024357806370a0823114610263578063715018a6146102835761011f565b806301ffc9a71461012457806306fdde0314610159578063081812fc1461017b578063095ea7b3146101b357806323b872dd146101d5575b600080fd5b34801561013057600080fd5b5061014461013f3660046117ac565b6103f6565b60405190151581526020015b60405180910390f35b34801561016557600080fd5b5061016e61044a565b60405161015091906118f6565b34801561018757600080fd5b5061019b61019636600461182a565b6104dc565b6040516001600160a01b039091168152602001610150565b3480156101bf57600080fd5b506101d36101ce366004611783565b610569565b005b3480156101e157600080fd5b506101d36101f0366004611695565b61067f565b34801561020157600080fd5b506101d3610210366004611695565b6106b0565b34801561022157600080fd5b506102356102303660046117e4565b6106cb565b604051908152602001610150565b34801561024f57600080fd5b5061019b61025e36600461182a565b610759565b34801561026f57600080fd5b5061023561027e366004611649565b6107d0565b34801561028f57600080fd5b506101d3610857565b3480156102a457600080fd5b506102356102b33660046117e4565b61088d565b3480156102c457600080fd5b506007546001600160a01b031661019b565b3480156102e257600080fd5b5061016e6108c8565b3480156102f757600080fd5b506101d3610306366004611749565b6108d7565b34801561031757600080fd5b5060408051808201909152600681526548656c6c6f7760d01b602082015261016e565b34801561034657600080fd5b506101d36103553660046116d0565b6109a9565b34801561036657600080fd5b5061016e61037536600461182a565b6109e1565b34801561038657600080fd5b50610144610395366004611663565b6001600160a01b03918216600090815260056020908152604080832093909416825291909152205460ff1690565b3480156103cf57600080fd5b506101d36103de366004611649565b610b59565b6102356103f13660046117e4565b610bf4565b60006001600160e01b031982166380ac58cd60e01b148061042757506001600160e01b03198216635b5e139f60e01b145b8061044257506301ffc9a760e01b6001600160e01b03198316145b90505b919050565b60606000805461045990611a50565b80601f016020809104026020016040519081016040528092919081815260200182805461048590611a50565b80156104d25780601f106104a7576101008083540402835291602001916104d2565b820191906000526020600020905b8154815290600101906020018083116104b557829003601f168201915b5050505050905090565b60006104e782610ccf565b61054d5760405162461bcd60e51b815260206004820152602c60248201527f4552433732313a20617070726f76656420717565727920666f72206e6f6e657860448201526b34b9ba32b73a103a37b5b2b760a11b60648201526084015b60405180910390fd5b506000908152600460205260409020546001600160a01b031690565b600061057482610759565b9050806001600160a01b0316836001600160a01b031614156105e25760405162461bcd60e51b815260206004820152602160248201527f4552433732313a20617070726f76616c20746f2063757272656e74206f776e656044820152603960f91b6064820152608401610544565b336001600160a01b03821614806105fe57506105fe8133610395565b6106705760405162461bcd60e51b815260206004820152603860248201527f4552433732313a20617070726f76652063616c6c6572206973206e6f74206f7760448201527f6e6572206e6f7220617070726f76656420666f7220616c6c00000000000000006064820152608401610544565b61067a8383610cec565b505050565b6106893382610d5a565b6106a55760405162461bcd60e51b815260040161054490611990565b61067a838383610e40565b61067a838383604051806020016040528060008152506109a9565b60006106db600880546001019055565b60006106e660085490565b90506106f23382610fe0565b6106fc8184611113565b600954610713906001600160a01b031660016108d7565b82604051610721919061186e565b6040519081900381209082907fe883eeefa7f620d513eac93479fc9f54ce03f9f4a72c0d818311a9d19556e87990600090a392915050565b6000818152600260205260408120546001600160a01b0316806104425760405162461bcd60e51b815260206004820152602960248201527f4552433732313a206f776e657220717565727920666f72206e6f6e657869737460448201526832b73a103a37b5b2b760b91b6064820152608401610544565b60006001600160a01b03821661083b5760405162461bcd60e51b815260206004820152602a60248201527f4552433732313a2062616c616e636520717565727920666f7220746865207a65604482015269726f206164647265737360b01b6064820152608401610544565b506001600160a01b031660009081526003602052604090205490565b6007546001600160a01b031633146108815760405162461bcd60e51b81526004016105449061195b565b61088b600061119e565b565b6007546000906001600160a01b031633146108ba5760405162461bcd60e51b81526004016105449061195b565b6106db600880546001019055565b60606001805461045990611a50565b6001600160a01b0382163314156109305760405162461bcd60e51b815260206004820152601960248201527f4552433732313a20617070726f766520746f2063616c6c6572000000000000006044820152606401610544565b3360008181526005602090815260408083206001600160a01b0387168085529252909120805460ff1916841515179055906001600160a01b03167f17307eab39ab6107e8899845ad3d59bd9653f200f220920489ca2b5937696c318360405161099d911515815260200190565b60405180910390a35050565b6109b33383610d5a565b6109cf5760405162461bcd60e51b815260040161054490611990565b6109db848484846111f0565b50505050565b60606109ec82610ccf565b610a525760405162461bcd60e51b815260206004820152603160248201527f45524337323155524953746f726167653a2055524920717565727920666f72206044820152703737b732bc34b9ba32b73a103a37b5b2b760791b6064820152608401610544565b60008281526006602052604081208054610a6b90611a50565b80601f0160208091040260200160405190810160405280929190818152602001828054610a9790611a50565b8015610ae45780601f10610ab957610100808354040283529160200191610ae4565b820191906000526020600020905b815481529060010190602001808311610ac757829003601f168201915b505050505090506000610b0260408051602081019091526000815290565b9050805160001415610b1657509050610445565b815115610b48578082604051602001610b3092919061188a565b60405160208183030381529060405292505050610445565b610b5184611223565b949350505050565b6007546001600160a01b03163314610b835760405162461bcd60e51b81526004016105449061195b565b6001600160a01b038116610be85760405162461bcd60e51b815260206004820152602660248201527f4f776e61626c653a206e6577206f776e657220697320746865207a65726f206160448201526564647265737360d01b6064820152608401610544565b610bf18161119e565b50565b6000600a543414610c3e5760405162461bcd60e51b81526020600482015260146024820152731b5a5b9d081c1c9a58d9481a5b98dbdc9c9958dd60621b6044820152606401610544565b610c4c600880546001019055565b6000610c5760085490565b9050610c633382610fe0565b610c6d8184611113565b600954610c84906001600160a01b031660016108d7565b600754600a546040516001600160a01b039092169181156108fc0291906000818181858888f19350505050158015610cc0573d6000803e3d6000fd5b5082604051610721919061186e565b6000908152600260205260409020546001600160a01b0316151590565b600081815260046020526040902080546001600160a01b0319166001600160a01b0384169081179091558190610d2182610759565b6001600160a01b03167f8c5be1e5ebec7d5bd14f71427d1e84f3dd0314c0f7b2291e5b200ac8c7c3b92560405160405180910390a45050565b6000610d6582610ccf565b610dc65760405162461bcd60e51b815260206004820152602c60248201527f4552433732313a206f70657261746f7220717565727920666f72206e6f6e657860448201526b34b9ba32b73a103a37b5b2b760a11b6064820152608401610544565b6000610dd183610759565b9050806001600160a01b0316846001600160a01b03161480610e0c5750836001600160a01b0316610e01846104dc565b6001600160a01b0316145b80610b5157506001600160a01b0380821660009081526005602090815260408083209388168352929052205460ff16610b51565b826001600160a01b0316610e5382610759565b6001600160a01b031614610ebb5760405162461bcd60e51b815260206004820152602960248201527f4552433732313a207472616e73666572206f6620746f6b656e2074686174206960448201526839903737ba1037bbb760b91b6064820152608401610544565b6001600160a01b038216610f1d5760405162461bcd60e51b8152602060048201526024808201527f4552433732313a207472616e7366657220746f20746865207a65726f206164646044820152637265737360e01b6064820152608401610544565b610f28600082610cec565b6001600160a01b0383166000908152600360205260408120805460019290610f51908490611a0d565b90915550506001600160a01b0382166000908152600360205260408120805460019290610f7f9084906119e1565b909155505060008181526002602052604080822080546001600160a01b0319166001600160a01b0386811691821790925591518493918716917fddf252ad1be2c89b69c2b068fc378daa952ba7f163c4a11628f55a4df523b3ef91a4505050565b6001600160a01b0382166110365760405162461bcd60e51b815260206004820181905260248201527f4552433732313a206d696e7420746f20746865207a65726f20616464726573736044820152606401610544565b61103f81610ccf565b1561108c5760405162461bcd60e51b815260206004820152601c60248201527f4552433732313a20746f6b656e20616c7265616479206d696e746564000000006044820152606401610544565b6001600160a01b03821660009081526003602052604081208054600192906110b59084906119e1565b909155505060008181526002602052604080822080546001600160a01b0319166001600160a01b03861690811790915590518392907fddf252ad1be2c89b69c2b068fc378daa952ba7f163c4a11628f55a4df523b3ef908290a45050565b61111c82610ccf565b61117f5760405162461bcd60e51b815260206004820152602e60248201527f45524337323155524953746f726167653a2055524920736574206f66206e6f6e60448201526d32bc34b9ba32b73a103a37b5b2b760911b6064820152608401610544565b6000828152600660209081526040909120825161067a92840190611523565b600780546001600160a01b038381166001600160a01b0319831681179093556040519116919082907f8be0079c531659141344cd1fd0a4f28419497f9722a3daafe3b4186f6b6457e090600090a35050565b6111fb848484610e40565b611207848484846112fb565b6109db5760405162461bcd60e51b815260040161054490611909565b606061122e82610ccf565b6112925760405162461bcd60e51b815260206004820152602f60248201527f4552433732314d657461646174613a2055524920717565727920666f72206e6f60448201526e3732bc34b9ba32b73a103a37b5b2b760891b6064820152608401610544565b60006112a960408051602081019091526000815290565b905060008151116112c957604051806020016040528060008152506112f4565b806112d384611408565b6040516020016112e492919061188a565b6040516020818303038152906040525b9392505050565b60006001600160a01b0384163b156113fd57604051630a85bd0160e11b81526001600160a01b0385169063150b7a029061133f9033908990889088906004016118b9565b602060405180830381600087803b15801561135957600080fd5b505af1925050508015611389575060408051601f3d908101601f19168201909252611386918101906117c8565b60015b6113e3573d8080156113b7576040519150601f19603f3d011682016040523d82523d6000602084013e6113bc565b606091505b5080516113db5760405162461bcd60e51b815260040161054490611909565b805181602001fd5b6001600160e01b031916630a85bd0160e11b149050610b51565b506001949350505050565b60608161142d57506040805180820190915260018152600360fc1b6020820152610445565b8160005b8115611457578061144181611a8b565b91506114509050600a836119f9565b9150611431565b60008167ffffffffffffffff81111561148057634e487b7160e01b600052604160045260246000fd5b6040519080825280601f01601f1916602001820160405280156114aa576020820181803683370190505b5090505b8415610b51576114bf600183611a0d565b91506114cc600a86611aa6565b6114d79060306119e1565b60f81b8183815181106114fa57634e487b7160e01b600052603260045260246000fd5b60200101906001600160f81b031916908160001a90535061151c600a866119f9565b94506114ae565b82805461152f90611a50565b90600052602060002090601f0160209004810192826115515760008555611597565b82601f1061156a57805160ff1916838001178555611597565b82800160010185558215611597579182015b8281111561159757825182559160200191906001019061157c565b506115a39291506115a7565b5090565b5b808211156115a357600081556001016115a8565b600067ffffffffffffffff808411156115d7576115d7611ae6565b604051601f8501601f19908116603f011681019082821181831017156115ff576115ff611ae6565b8160405280935085815286868601111561161857600080fd5b858560208301376000602087830101525050509392505050565b80356001600160a01b038116811461044557600080fd5b60006020828403121561165a578081fd5b6112f482611632565b60008060408385031215611675578081fd5b61167e83611632565b915061168c60208401611632565b90509250929050565b6000806000606084860312156116a9578081fd5b6116b284611632565b92506116c060208501611632565b9150604084013590509250925092565b600080600080608085870312156116e5578081fd5b6116ee85611632565b93506116fc60208601611632565b925060408501359150606085013567ffffffffffffffff81111561171e578182fd5b8501601f8101871361172e578182fd5b61173d878235602084016115bc565b91505092959194509250565b6000806040838503121561175b578182fd5b61176483611632565b915060208301358015158114611778578182fd5b809150509250929050565b60008060408385031215611795578182fd5b61179e83611632565b946020939093013593505050565b6000602082840312156117bd578081fd5b81356112f481611afc565b6000602082840312156117d9578081fd5b81516112f481611afc565b6000602082840312156117f5578081fd5b813567ffffffffffffffff81111561180b578182fd5b8201601f8101841361181b578182fd5b610b51848235602084016115bc565b60006020828403121561183b578081fd5b5035919050565b6000815180845261185a816020860160208601611a24565b601f01601f19169290920160200192915050565b60008251611880818460208701611a24565b9190910192915050565b6000835161189c818460208801611a24565b8351908301906118b0818360208801611a24565b01949350505050565b6001600160a01b03858116825284166020820152604081018390526080606082018190526000906118ec90830184611842565b9695505050505050565b6000602082526112f46020830184611842565b60208082526032908201527f4552433732313a207472616e7366657220746f206e6f6e20455243373231526560408201527131b2b4bb32b91034b6b83632b6b2b73a32b960711b606082015260800190565b6020808252818101527f4f776e61626c653a2063616c6c6572206973206e6f7420746865206f776e6572604082015260600190565b60208082526031908201527f4552433732313a207472616e736665722063616c6c6572206973206e6f74206f6040820152701ddb995c881b9bdc88185c1c1c9bdd9959607a1b606082015260800190565b600082198211156119f4576119f4611aba565b500190565b600082611a0857611a08611ad0565b500490565b600082821015611a1f57611a1f611aba565b500390565b60005b83811015611a3f578181015183820152602001611a27565b838111156109db5750506000910152565b600181811c90821680611a6457607f821691505b60208210811415611a8557634e487b7160e01b600052602260045260246000fd5b50919050565b6000600019821415611a9f57611a9f611aba565b5060010190565b600082611ab557611ab5611ad0565b500690565b634e487b7160e01b600052601160045260246000fd5b634e487b7160e01b600052601260045260246000fd5b634e487b7160e01b600052604160045260246000fd5b6001600160e01b031981168114610bf157600080fdfea26469706673582212204e481cd0c58b8bd12db5ed5baf9347083f16c71492a91acb1e11ee9148d7058364736f6c63430008030033",
  "linkReferences": {},
  "deployedLinkReferences": {}
}