{
  "_format": "hh-sol-artifact-1",
  "contractName": "NFT",
  "sourceName": "contracts/NFT.sol",
  "abi": [
    {
      "inputs": [
        {
          "internalType": "address",
          "name": "marketplaceAddress",
          "type": "address"
        }
      ],
      "stateMutability": "nonpayable",
      "type": "constructor"
    },
    {
      "anonymous": false,
      "inputs": [
        {
          "indexed": true,
          "internalType": "address",
          "name": "owner",
          "type": "address"
        },
        {
          "indexed": true,
          "internalType": "address",
          "name": "approved",
          "type": "address"
        },
        {
          "indexed": true,
          "internalType": "uint256",
          "name": "tokenId",
          "type": "uint256"
        }
      ],
      "name": "Approval",
      "type": "event"
    },
    {
      "anonymous": false,
      "inputs": [
        {
          "indexed": true,
          "internalType": "address",
          "name": "owner",
          "type": "address"
        },
        {
          "indexed": true,
          "internalType": "address",
          "name": "operator",
          "type": "address"
        },
        {
          "indexed": false,
          "internalType": "bool",
          "name": "approved",
          "type": "bool"
        }
      ],
      "name": "ApprovalForAll",
      "type": "event"
    },
    {
      "anonymous": false,
      "inputs": [
        {
          "indexed": true,
          "internalType": "uint256",
          "name": "tokenId",
          "type": "uint256"
        },
        {
          "indexed": true,
          "internalType": "string",
          "name": "tokenURI",
          "type": "string"
        }
      ],
      "name": "NFTCreated",
      "type": "event"
    },
    {
      "anonymous": false,
      "inputs": [
        {
          "indexed": true,
          "internalType": "address",
          "name": "previousOwner",
          "type": "address"
        },
        {
          "indexed": true,
          "internalType": "address",
          "name": "newOwner",
          "type": "address"
        }
      ],
      "name": "OwnershipTransferred",
      "type": "event"
    },
    {
      "anonymous": false,
      "inputs": [
        {
          "indexed": true,
          "internalType": "address",
          "name": "from",
          "type": "address"
        },
        {
          "indexed": true,
          "internalType": "address",
          "name": "to",
          "type": "address"
        },
        {
          "indexed": true,
          "internalType": "uint256",
          "name": "tokenId",
          "type": "uint256"
        }
      ],
      "name": "Transfer",
      "type": "event"
    },
    {
      "inputs": [
        {
          "internalType": "address",
          "name": "to",
          "type": "address"
        },
        {
          "internalType": "uint256",
          "name": "tokenId",
          "type": "uint256"
        }
      ],
      "name": "approve",
      "outputs": [],
      "stateMutability": "nonpayable",
      "type": "function"
    },
    {
      "inputs": [
        {
          "internalType": "address",
          "name": "owner",
          "type": "address"
        }
      ],
      "name": "balanceOf",
      "outputs": [
        {
          "internalType": "uint256",
          "name": "",
          "type": "uint256"
        }
      ],
      "stateMutability": "view",
      "type": "function"
    },
    {
      "inputs": [
        {
          "internalType": "string",
          "name": "tokenURI",
          "type": "string"
        }
      ],
      "name": "createToken",
      "outputs": [
        {
          "internalType": "uint256",
          "name": "",
          "type": "uint256"
        }
      ],
      "stateMutability": "nonpayable",
      "type": "function"
    },
    {
      "inputs": [
        {
          "internalType": "uint256",
          "name": "tokenId",
          "type": "uint256"
        }
      ],
      "name": "getApproved",
      "outputs": [
        {
          "internalType": "address",
          "name": "",
          "type": "address"
        }
      ],
      "stateMutability": "view",
      "type": "function"
    },
    {
      "inputs": [],
      "name": "getTest",
      "outputs": [
        {
          "internalType": "string",
          "name": "",
          "type": "string"
        }
      ],
      "stateMutability": "pure",
      "type": "function"
    },
    {
      "inputs": [
        {
          "internalType": "address",
          "name": "owner",
          "type": "address"
        },
        {
          "internalType": "address",
          "name": "operator",
          "type": "address"
        }
      ],
      "name": "isApprovedForAll",
      "outputs": [
        {
          "internalType": "bool",
          "name": "",
          "type": "bool"
        }
      ],
      "stateMutability": "view",
      "type": "function"
    },
    {
      "inputs": [],
      "name": "name",
      "outputs": [
        {
          "internalType": "string",
          "name": "",
          "type": "string"
        }
      ],
      "stateMutability": "view",
      "type": "function"
    },
    {
      "inputs": [],
      "name": "owner",
      "outputs": [
        {
          "internalType": "address",
          "name": "",
          "type": "address"
        }
      ],
      "stateMutability": "view",
      "type": "function"
    },
    {
      "inputs": [
        {
          "internalType": "uint256",
          "name": "tokenId",
          "type": "uint256"
        }
      ],
      "name": "ownerOf",
      "outputs": [
        {
          "internalType": "address",
          "name": "",
          "type": "address"
        }
      ],
      "stateMutability": "view",
      "type": "function"
    },
    {
      "inputs": [],
      "name": "renounceOwnership",
      "outputs": [],
      "stateMutability": "nonpayable",
      "type": "function"
    },
    {
      "inputs": [
        {
          "internalType": "address",
          "name": "from",
          "type": "address"
        },
        {
          "internalType": "address",
          "name": "to",
          "type": "address"
        },
        {
          "internalType": "uint256",
          "name": "tokenId",
          "type": "uint256"
        }
      ],
      "name": "safeTransferFrom",
      "outputs": [],
      "stateMutability": "nonpayable",
      "type": "function"
    },
    {
      "inputs": [
        {
          "internalType": "address",
          "name": "from",
          "type": "address"
        },
        {
          "internalType": "address",
          "name": "to",
          "type": "address"
        },
        {
          "internalType": "uint256",
          "name": "tokenId",
          "type": "uint256"
        },
        {
          "internalType": "bytes",
          "name": "_data",
          "type": "bytes"
        }
      ],
      "name": "safeTransferFrom",
      "outputs": [],
      "stateMutability": "nonpayable",
      "type": "function"
    },
    {
      "inputs": [
        {
          "internalType": "address",
          "name": "operator",
          "type": "address"
        },
        {
          "internalType": "bool",
          "name": "approved",
          "type": "bool"
        }
      ],
      "name": "setApprovalForAll",
      "outputs": [],
      "stateMutability": "nonpayable",
      "type": "function"
    },
    {
      "inputs": [
        {
          "internalType": "bytes4",
          "name": "interfaceId",
          "type": "bytes4"
        }
      ],
      "name": "supportsInterface",
      "outputs": [
        {
          "internalType": "bool",
          "name": "",
          "type": "bool"
        }
      ],
      "stateMutability": "view",
      "type": "function"
    },
    {
      "inputs": [],
      "name": "symbol",
      "outputs": [
        {
          "internalType": "string",
          "name": "",
          "type": "string"
        }
      ],
      "stateMutability": "view",
      "type": "function"
    },
    {
      "inputs": [
        {
          "internalType": "uint256",
          "name": "tokenId",
          "type": "uint256"
        }
      ],
      "name": "tokenURI",
      "outputs": [
        {
          "internalType": "string",
          "name": "",
          "type": "string"
        }
      ],
      "stateMutability": "view",
      "type": "function"
    },
    {
      "inputs": [
        {
          "internalType": "address",
          "name": "from",
          "type": "address"
        },
        {
          "internalType": "address",
          "name": "to",
          "type": "address"
        },
        {
          "internalType": "uint256",
          "name": "tokenId",
          "type": "uint256"
        }
      ],
      "name": "transferFrom",
      "outputs": [],
      "stateMutability": "nonpayable",
      "type": "function"
    },
    {
      "inputs": [
        {
          "internalType": "address",
          "name": "newOwner",
          "type": "address"
        }
      ],
      "name": "transferOwnership",
      "outputs": [],
      "stateMutability": "nonpayable",
      "type": "function"
    }
  ],
  "bytecode": "0x60806040523480156200001157600080fd5b5060405162001b8a38038062001b8a8339810160408190526200003491620001d6565b60408051808201825260098152684d657461766572736560b81b6020808301918252835180850190945260048452631351551560e21b908401528151919291620000819160009162000130565b5080516200009790600190602084019062000130565b505050620000b4620000ae620000da60201b60201c565b620000de565b600980546001600160a01b0319166001600160a01b039290921691909117905562000243565b3390565b600780546001600160a01b038381166001600160a01b0319831681179093556040519116919082907f8be0079c531659141344cd1fd0a4f28419497f9722a3daafe3b4186f6b6457e090600090a35050565b8280546200013e9062000206565b90600052602060002090601f016020900481019282620001625760008555620001ad565b82601f106200017d57805160ff1916838001178555620001ad565b82800160010185558215620001ad579182015b82811115620001ad57825182559160200191906001019062000190565b50620001bb929150620001bf565b5090565b5b80821115620001bb5760008155600101620001c0565b600060208284031215620001e8578081fd5b81516001600160a01b0381168114620001ff578182fd5b9392505050565b600181811c908216806200021b57607f821691505b602082108114156200023d57634e487b7160e01b600052602260045260246000fd5b50919050565b61193780620002536000396000f3fe608060405234801561001057600080fd5b50600436106101165760003560e01c8063715018a6116100a2578063a8cd0a8011610071578063a8cd0a8014610239578063b88d4fde1461025b578063c87b56dd1461026e578063e985e9c514610281578063f2fde38b146102bd57610116565b8063715018a6146102055780638da5cb5b1461020d57806395d89b411461021e578063a22cb4651461022657610116565b806323b872dd116100e957806323b872dd1461019857806342842e0e146101ab57806345576f94146101be5780636352211e146101df57806370a08231146101f257610116565b806301ffc9a71461011b57806306fdde0314610143578063081812fc14610158578063095ea7b314610183575b600080fd5b61012e61012936600461159b565b6102d0565b60405190151581526020015b60405180910390f35b61014b610324565b60405161013a91906116e5565b61016b610166366004611619565b6103b6565b6040516001600160a01b03909116815260200161013a565b610196610191366004611572565b610443565b005b6101966101a6366004611484565b610559565b6101966101b9366004611484565b61058a565b6101d16101cc3660046115d3565b6105a5565b60405190815260200161013a565b61016b6101ed366004611619565b61065e565b6101d1610200366004611438565b6106d5565b61019661075c565b6007546001600160a01b031661016b565b61014b610792565b610196610234366004611538565b6107a1565b60408051808201909152600681526548656c6c6f7760d01b602082015261014b565b6101966102693660046114bf565b610873565b61014b61027c366004611619565b6108ab565b61012e61028f366004611452565b6001600160a01b03918216600090815260056020908152604080832093909416825291909152205460ff1690565b6101966102cb366004611438565b610a23565b60006001600160e01b031982166380ac58cd60e01b148061030157506001600160e01b03198216635b5e139f60e01b145b8061031c57506301ffc9a760e01b6001600160e01b03198316145b90505b919050565b6060600080546103339061183f565b80601f016020809104026020016040519081016040528092919081815260200182805461035f9061183f565b80156103ac5780601f10610381576101008083540402835291602001916103ac565b820191906000526020600020905b81548152906001019060200180831161038f57829003601f168201915b5050505050905090565b60006103c182610abe565b6104275760405162461bcd60e51b815260206004820152602c60248201527f4552433732313a20617070726f76656420717565727920666f72206e6f6e657860448201526b34b9ba32b73a103a37b5b2b760a11b60648201526084015b60405180910390fd5b506000908152600460205260409020546001600160a01b031690565b600061044e8261065e565b9050806001600160a01b0316836001600160a01b031614156104bc5760405162461bcd60e51b815260206004820152602160248201527f4552433732313a20617070726f76616c20746f2063757272656e74206f776e656044820152603960f91b606482015260840161041e565b336001600160a01b03821614806104d857506104d8813361028f565b61054a5760405162461bcd60e51b815260206004820152603860248201527f4552433732313a20617070726f76652063616c6c6572206973206e6f74206f7760448201527f6e6572206e6f7220617070726f76656420666f7220616c6c0000000000000000606482015260840161041e565b6105548383610adb565b505050565b6105633382610b49565b61057f5760405162461bcd60e51b815260040161041e9061177f565b610554838383610c2f565b61055483838360405180602001604052806000815250610873565b6007546000906001600160a01b031633146105d25760405162461bcd60e51b815260040161041e9061174a565b6105e0600880546001019055565b60006105eb60085490565b90506105f73382610dcf565b6106018184610f02565b600954610618906001600160a01b031660016107a1565b82604051610626919061165d565b6040519081900381209082907fe883eeefa7f620d513eac93479fc9f54ce03f9f4a72c0d818311a9d19556e87990600090a392915050565b6000818152600260205260408120546001600160a01b03168061031c5760405162461bcd60e51b815260206004820152602960248201527f4552433732313a206f776e657220717565727920666f72206e6f6e657869737460448201526832b73a103a37b5b2b760b91b606482015260840161041e565b60006001600160a01b0382166107405760405162461bcd60e51b815260206004820152602a60248201527f4552433732313a2062616c616e636520717565727920666f7220746865207a65604482015269726f206164647265737360b01b606482015260840161041e565b506001600160a01b031660009081526003602052604090205490565b6007546001600160a01b031633146107865760405162461bcd60e51b815260040161041e9061174a565b6107906000610f8d565b565b6060600180546103339061183f565b6001600160a01b0382163314156107fa5760405162461bcd60e51b815260206004820152601960248201527f4552433732313a20617070726f766520746f2063616c6c657200000000000000604482015260640161041e565b3360008181526005602090815260408083206001600160a01b0387168085529252909120805460ff1916841515179055906001600160a01b03167f17307eab39ab6107e8899845ad3d59bd9653f200f220920489ca2b5937696c3183604051610867911515815260200190565b60405180910390a35050565b61087d3383610b49565b6108995760405162461bcd60e51b815260040161041e9061177f565b6108a584848484610fdf565b50505050565b60606108b682610abe565b61091c5760405162461bcd60e51b815260206004820152603160248201527f45524337323155524953746f726167653a2055524920717565727920666f72206044820152703737b732bc34b9ba32b73a103a37b5b2b760791b606482015260840161041e565b600082815260066020526040812080546109359061183f565b80601f01602080910402602001604051908101604052809291908181526020018280546109619061183f565b80156109ae5780601f10610983576101008083540402835291602001916109ae565b820191906000526020600020905b81548152906001019060200180831161099157829003601f168201915b5050505050905060006109cc60408051602081019091526000815290565b90508051600014156109e05750905061031f565b815115610a125780826040516020016109fa929190611679565b6040516020818303038152906040529250505061031f565b610a1b84611012565b949350505050565b6007546001600160a01b03163314610a4d5760405162461bcd60e51b815260040161041e9061174a565b6001600160a01b038116610ab25760405162461bcd60e51b815260206004820152602660248201527f4f776e61626c653a206e6577206f776e657220697320746865207a65726f206160448201526564647265737360d01b606482015260840161041e565b610abb81610f8d565b50565b6000908152600260205260409020546001600160a01b0316151590565b600081815260046020526040902080546001600160a01b0319166001600160a01b0384169081179091558190610b108261065e565b6001600160a01b03167f8c5be1e5ebec7d5bd14f71427d1e84f3dd0314c0f7b2291e5b200ac8c7c3b92560405160405180910390a45050565b6000610b5482610abe565b610bb55760405162461bcd60e51b815260206004820152602c60248201527f4552433732313a206f70657261746f7220717565727920666f72206e6f6e657860448201526b34b9ba32b73a103a37b5b2b760a11b606482015260840161041e565b6000610bc08361065e565b9050806001600160a01b0316846001600160a01b03161480610bfb5750836001600160a01b0316610bf0846103b6565b6001600160a01b0316145b80610a1b57506001600160a01b0380821660009081526005602090815260408083209388168352929052205460ff16610a1b565b826001600160a01b0316610c428261065e565b6001600160a01b031614610caa5760405162461bcd60e51b815260206004820152602960248201527f4552433732313a207472616e73666572206f6620746f6b656e2074686174206960448201526839903737ba1037bbb760b91b606482015260840161041e565b6001600160a01b038216610d0c5760405162461bcd60e51b8152602060048201526024808201527f4552433732313a207472616e7366657220746f20746865207a65726f206164646044820152637265737360e01b606482015260840161041e565b610d17600082610adb565b6001600160a01b0383166000908152600360205260408120805460019290610d409084906117fc565b90915550506001600160a01b0382166000908152600360205260408120805460019290610d6e9084906117d0565b909155505060008181526002602052604080822080546001600160a01b0319166001600160a01b0386811691821790925591518493918716917fddf252ad1be2c89b69c2b068fc378daa952ba7f163c4a11628f55a4df523b3ef91a4505050565b6001600160a01b038216610e255760405162461bcd60e51b815260206004820181905260248201527f4552433732313a206d696e7420746f20746865207a65726f2061646472657373604482015260640161041e565b610e2e81610abe565b15610e7b5760405162461bcd60e51b815260206004820152601c60248201527f4552433732313a20746f6b656e20616c7265616479206d696e74656400000000604482015260640161041e565b6001600160a01b0382166000908152600360205260408120805460019290610ea49084906117d0565b909155505060008181526002602052604080822080546001600160a01b0319166001600160a01b03861690811790915590518392907fddf252ad1be2c89b69c2b068fc378daa952ba7f163c4a11628f55a4df523b3ef908290a45050565b610f0b82610abe565b610f6e5760405162461bcd60e51b815260206004820152602e60248201527f45524337323155524953746f726167653a2055524920736574206f66206e6f6e60448201526d32bc34b9ba32b73a103a37b5b2b760911b606482015260840161041e565b6000828152600660209081526040909120825161055492840190611312565b600780546001600160a01b038381166001600160a01b0319831681179093556040519116919082907f8be0079c531659141344cd1fd0a4f28419497f9722a3daafe3b4186f6b6457e090600090a35050565b610fea848484610c2f565b610ff6848484846110ea565b6108a55760405162461bcd60e51b815260040161041e906116f8565b606061101d82610abe565b6110815760405162461bcd60e51b815260206004820152602f60248201527f4552433732314d657461646174613a2055524920717565727920666f72206e6f60448201526e3732bc34b9ba32b73a103a37b5b2b760891b606482015260840161041e565b600061109860408051602081019091526000815290565b905060008151116110b857604051806020016040528060008152506110e3565b806110c2846111f7565b6040516020016110d3929190611679565b6040516020818303038152906040525b9392505050565b60006001600160a01b0384163b156111ec57604051630a85bd0160e11b81526001600160a01b0385169063150b7a029061112e9033908990889088906004016116a8565b602060405180830381600087803b15801561114857600080fd5b505af1925050508015611178575060408051601f3d908101601f19168201909252611175918101906115b7565b60015b6111d2573d8080156111a6576040519150601f19603f3d011682016040523d82523d6000602084013e6111ab565b606091505b5080516111ca5760405162461bcd60e51b815260040161041e906116f8565b805181602001fd5b6001600160e01b031916630a85bd0160e11b149050610a1b565b506001949350505050565b60608161121c57506040805180820190915260018152600360fc1b602082015261031f565b8160005b811561124657806112308161187a565b915061123f9050600a836117e8565b9150611220565b60008167ffffffffffffffff81111561126f57634e487b7160e01b600052604160045260246000fd5b6040519080825280601f01601f191660200182016040528015611299576020820181803683370190505b5090505b8415610a1b576112ae6001836117fc565b91506112bb600a86611895565b6112c69060306117d0565b60f81b8183815181106112e957634e487b7160e01b600052603260045260246000fd5b60200101906001600160f81b031916908160001a90535061130b600a866117e8565b945061129d565b82805461131e9061183f565b90600052602060002090601f0160209004810192826113405760008555611386565b82601f1061135957805160ff1916838001178555611386565b82800160010185558215611386579182015b8281111561138657825182559160200191906001019061136b565b50611392929150611396565b5090565b5b808211156113925760008155600101611397565b600067ffffffffffffffff808411156113c6576113c66118d5565b604051601f8501601f19908116603f011681019082821181831017156113ee576113ee6118d5565b8160405280935085815286868601111561140757600080fd5b858560208301376000602087830101525050509392505050565b80356001600160a01b038116811461031f57600080fd5b600060208284031215611449578081fd5b6110e382611421565b60008060408385031215611464578081fd5b61146d83611421565b915061147b60208401611421565b90509250929050565b600080600060608486031215611498578081fd5b6114a184611421565b92506114af60208501611421565b9150604084013590509250925092565b600080600080608085870312156114d4578081fd5b6114dd85611421565b93506114eb60208601611421565b925060408501359150606085013567ffffffffffffffff81111561150d578182fd5b8501601f8101871361151d578182fd5b61152c878235602084016113ab565b91505092959194509250565b6000806040838503121561154a578182fd5b61155383611421565b915060208301358015158114611567578182fd5b809150509250929050565b60008060408385031215611584578182fd5b61158d83611421565b946020939093013593505050565b6000602082840312156115ac578081fd5b81356110e3816118eb565b6000602082840312156115c8578081fd5b81516110e3816118eb565b6000602082840312156115e4578081fd5b813567ffffffffffffffff8111156115fa578182fd5b8201601f8101841361160a578182fd5b610a1b848235602084016113ab565b60006020828403121561162a578081fd5b5035919050565b60008151808452611649816020860160208601611813565b601f01601f19169290920160200192915050565b6000825161166f818460208701611813565b9190910192915050565b6000835161168b818460208801611813565b83519083019061169f818360208801611813565b01949350505050565b6001600160a01b03858116825284166020820152604081018390526080606082018190526000906116db90830184611631565b9695505050505050565b6000602082526110e36020830184611631565b60208082526032908201527f4552433732313a207472616e7366657220746f206e6f6e20455243373231526560408201527131b2b4bb32b91034b6b83632b6b2b73a32b960711b606082015260800190565b6020808252818101527f4f776e61626c653a2063616c6c6572206973206e6f7420746865206f776e6572604082015260600190565b60208082526031908201527f4552433732313a207472616e736665722063616c6c6572206973206e6f74206f6040820152701ddb995c881b9bdc88185c1c1c9bdd9959607a1b606082015260800190565b600082198211156117e3576117e36118a9565b500190565b6000826117f7576117f76118bf565b500490565b60008282101561180e5761180e6118a9565b500390565b60005b8381101561182e578181015183820152602001611816565b838111156108a55750506000910152565b600181811c9082168061185357607f821691505b6020821081141561187457634e487b7160e01b600052602260045260246000fd5b50919050565b600060001982141561188e5761188e6118a9565b5060010190565b6000826118a4576118a46118bf565b500690565b634e487b7160e01b600052601160045260246000fd5b634e487b7160e01b600052601260045260246000fd5b634e487b7160e01b600052604160045260246000fd5b6001600160e01b031981168114610abb57600080fdfea264697066735822122012114ceda527421fb91c154fa2695484440424db14de819fe41a2f8dc69b008064736f6c63430008030033",
  "linkReferences": {},
  "deployedLinkReferences": {}
}