{
  "_format": "hh-sol-artifact-1",
  "contractName": "NFTMarket",
  "sourceName": "contracts/Market.sol",
  "abi": [
    {
      "inputs": [],
      "stateMutability": "nonpayable",
      "type": "constructor"
    },
    {
      "anonymous": false,
      "inputs": [
        {
          "indexed": true,
          "internalType": "uint256",
          "name": "itemId",
          "type": "uint256"
        },
        {
          "indexed": true,
          "internalType": "address",
          "name": "nftContract",
          "type": "address"
        },
        {
          "indexed": true,
          "internalType": "uint256",
          "name": "tokenId",
          "type": "uint256"
        },
        {
          "indexed": false,
          "internalType": "address",
          "name": "seller",
          "type": "address"
        },
        {
          "indexed": false,
          "internalType": "address",
          "name": "owner",
          "type": "address"
        },
        {
          "indexed": false,
          "internalType": "uint256",
          "name": "price",
          "type": "uint256"
        },
        {
          "indexed": false,
          "internalType": "uint96",
          "name": "royalties",
          "type": "uint96"
        },
        {
          "indexed": false,
          "internalType": "bool",
          "name": "sold",
          "type": "bool"
        },
        {
          "indexed": false,
          "internalType": "bool",
          "name": "hasRoyalty",
          "type": "bool"
        }
      ],
      "name": "MarketItemCreated",
      "type": "event"
    },
    {
      "anonymous": false,
      "inputs": [
        {
          "indexed": false,
          "internalType": "uint256",
          "name": "tokenId",
          "type": "uint256"
        },
        {
          "components": [
            {
              "internalType": "address payable",
              "name": "account",
              "type": "address"
            },
            {
              "internalType": "uint96",
              "name": "value",
              "type": "uint96"
            }
          ],
          "indexed": false,
          "internalType": "struct LibPart.Part[]",
          "name": "royalties",
          "type": "tuple[]"
        }
      ],
      "name": "RoyaltiesSet",
      "type": "event"
    },
    {
      "inputs": [
        {
          "internalType": "address",
          "name": "nftContract",
          "type": "address"
        },
        {
          "internalType": "uint256",
          "name": "tokenId",
          "type": "uint256"
        },
        {
          "internalType": "uint256",
          "name": "price",
          "type": "uint256"
        }
      ],
      "name": "createMarketItem",
      "outputs": [],
      "stateMutability": "payable",
      "type": "function"
    },
    {
      "inputs": [
        {
          "internalType": "address",
          "name": "nftContract",
          "type": "address"
        },
        {
          "internalType": "uint256",
          "name": "itemId",
          "type": "uint256"
        }
      ],
      "name": "createMarketSale",
      "outputs": [],
      "stateMutability": "payable",
      "type": "function"
    },
    {
      "inputs": [],
      "name": "fetchAllItems",
      "outputs": [
        {
          "components": [
            {
              "internalType": "uint256",
              "name": "itemId",
              "type": "uint256"
            },
            {
              "internalType": "address",
              "name": "nftContract",
              "type": "address"
            },
            {
              "internalType": "uint256",
              "name": "tokenId",
              "type": "uint256"
            },
            {
              "internalType": "address payable",
              "name": "seller",
              "type": "address"
            },
            {
              "internalType": "address payable",
              "name": "owner",
              "type": "address"
            },
            {
              "internalType": "uint256",
              "name": "price",
              "type": "uint256"
            },
            {
              "internalType": "uint96",
              "name": "royalties",
              "type": "uint96"
            },
            {
              "internalType": "bool",
              "name": "sold",
              "type": "bool"
            },
            {
              "internalType": "bool",
              "name": "hasRoyalty",
              "type": "bool"
            }
          ],
          "internalType": "struct NFTMarket.MarketItem[]",
          "name": "",
          "type": "tuple[]"
        }
      ],
      "stateMutability": "view",
      "type": "function"
    },
    {
      "inputs": [],
      "name": "fetchItemsCreated",
      "outputs": [
        {
          "components": [
            {
              "internalType": "uint256",
              "name": "itemId",
              "type": "uint256"
            },
            {
              "internalType": "address",
              "name": "nftContract",
              "type": "address"
            },
            {
              "internalType": "uint256",
              "name": "tokenId",
              "type": "uint256"
            },
            {
              "internalType": "address payable",
              "name": "seller",
              "type": "address"
            },
            {
              "internalType": "address payable",
              "name": "owner",
              "type": "address"
            },
            {
              "internalType": "uint256",
              "name": "price",
              "type": "uint256"
            },
            {
              "internalType": "uint96",
              "name": "royalties",
              "type": "uint96"
            },
            {
              "internalType": "bool",
              "name": "sold",
              "type": "bool"
            },
            {
              "internalType": "bool",
              "name": "hasRoyalty",
              "type": "bool"
            }
          ],
          "internalType": "struct NFTMarket.MarketItem[]",
          "name": "",
          "type": "tuple[]"
        }
      ],
      "stateMutability": "view",
      "type": "function"
    },
    {
      "inputs": [],
      "name": "fetchMarketItems",
      "outputs": [
        {
          "components": [
            {
              "internalType": "uint256",
              "name": "itemId",
              "type": "uint256"
            },
            {
              "internalType": "address",
              "name": "nftContract",
              "type": "address"
            },
            {
              "internalType": "uint256",
              "name": "tokenId",
              "type": "uint256"
            },
            {
              "internalType": "address payable",
              "name": "seller",
              "type": "address"
            },
            {
              "internalType": "address payable",
              "name": "owner",
              "type": "address"
            },
            {
              "internalType": "uint256",
              "name": "price",
              "type": "uint256"
            },
            {
              "internalType": "uint96",
              "name": "royalties",
              "type": "uint96"
            },
            {
              "internalType": "bool",
              "name": "sold",
              "type": "bool"
            },
            {
              "internalType": "bool",
              "name": "hasRoyalty",
              "type": "bool"
            }
          ],
          "internalType": "struct NFTMarket.MarketItem[]",
          "name": "",
          "type": "tuple[]"
        }
      ],
      "stateMutability": "view",
      "type": "function"
    },
    {
      "inputs": [],
      "name": "fetchMyNFTs",
      "outputs": [
        {
          "components": [
            {
              "internalType": "uint256",
              "name": "itemId",
              "type": "uint256"
            },
            {
              "internalType": "address",
              "name": "nftContract",
              "type": "address"
            },
            {
              "internalType": "uint256",
              "name": "tokenId",
              "type": "uint256"
            },
            {
              "internalType": "address payable",
              "name": "seller",
              "type": "address"
            },
            {
              "internalType": "address payable",
              "name": "owner",
              "type": "address"
            },
            {
              "internalType": "uint256",
              "name": "price",
              "type": "uint256"
            },
            {
              "internalType": "uint96",
              "name": "royalties",
              "type": "uint96"
            },
            {
              "internalType": "bool",
              "name": "sold",
              "type": "bool"
            },
            {
              "internalType": "bool",
              "name": "hasRoyalty",
              "type": "bool"
            }
          ],
          "internalType": "struct NFTMarket.MarketItem[]",
          "name": "",
          "type": "tuple[]"
        }
      ],
      "stateMutability": "view",
      "type": "function"
    },
    {
      "inputs": [
        {
          "internalType": "address",
          "name": "nftContract",
          "type": "address"
        },
        {
          "internalType": "uint256",
          "name": "tokenId",
          "type": "uint256"
        }
      ],
      "name": "fetchSpecificMarketItems",
      "outputs": [
        {
          "components": [
            {
              "internalType": "uint256",
              "name": "itemId",
              "type": "uint256"
            },
            {
              "internalType": "address",
              "name": "nftContract",
              "type": "address"
            },
            {
              "internalType": "uint256",
              "name": "tokenId",
              "type": "uint256"
            },
            {
              "internalType": "address payable",
              "name": "seller",
              "type": "address"
            },
            {
              "internalType": "address payable",
              "name": "owner",
              "type": "address"
            },
            {
              "internalType": "uint256",
              "name": "price",
              "type": "uint256"
            },
            {
              "internalType": "uint96",
              "name": "royalties",
              "type": "uint96"
            },
            {
              "internalType": "bool",
              "name": "sold",
              "type": "bool"
            },
            {
              "internalType": "bool",
              "name": "hasRoyalty",
              "type": "bool"
            }
          ],
          "internalType": "struct NFTMarket.MarketItem[]",
          "name": "",
          "type": "tuple[]"
        }
      ],
      "stateMutability": "view",
      "type": "function"
    },
    {
      "inputs": [],
      "name": "getListingPrice",
      "outputs": [
        {
          "internalType": "uint256",
          "name": "",
          "type": "uint256"
        }
      ],
      "stateMutability": "view",
      "type": "function"
    },
    {
      "inputs": [
        {
          "internalType": "uint256",
          "name": "itemId",
          "type": "uint256"
        }
      ],
      "name": "getRaribleV2Royalties",
      "outputs": [
        {
          "components": [
            {
              "internalType": "address payable",
              "name": "account",
              "type": "address"
            },
            {
              "internalType": "uint96",
              "name": "value",
              "type": "uint96"
            }
          ],
          "internalType": "struct LibPart.Part[]",
          "name": "",
          "type": "tuple[]"
        }
      ],
      "stateMutability": "view",
      "type": "function"
    },
    {
      "inputs": [
        {
          "internalType": "uint256",
          "name": "",
          "type": "uint256"
        },
        {
          "internalType": "uint256",
          "name": "",
          "type": "uint256"
        }
      ],
      "name": "royalties",
      "outputs": [
        {
          "internalType": "address payable",
          "name": "account",
          "type": "address"
        },
        {
          "internalType": "uint96",
          "name": "value",
          "type": "uint96"
        }
      ],
      "stateMutability": "view",
      "type": "function"
    },
    {
      "inputs": [
        {
          "internalType": "uint256",
          "name": "newlistingPrice",
          "type": "uint256"
        }
      ],
      "name": "setLisitingPrice",
      "outputs": [],
      "stateMutability": "nonpayable",
      "type": "function"
    },
    {
      "inputs": [
        {
          "internalType": "address",
          "name": "newOwner",
          "type": "address"
        }
      ],
      "name": "setOwner",
      "outputs": [],
      "stateMutability": "nonpayable",
      "type": "function"
    },
    {
      "inputs": [
        {
          "internalType": "uint256",
          "name": "itemId",
          "type": "uint256"
        },
        {
          "internalType": "address payable",
          "name": "_royaltiesReceipientAddress",
          "type": "address"
        },
        {
          "internalType": "uint96",
          "name": "_percentageBasisPoints",
          "type": "uint96"
        }
      ],
      "name": "setRoyalties",
      "outputs": [],
      "stateMutability": "nonpayable",
      "type": "function"
    }
  ],
  "bytecode": "0x60806040526658d15e1762800060055534801561001b57600080fd5b506001600055600480546001600160a01b03191633179055611d48806100426000396000f3fe6080604052600436106100c25760003560e01c80636c03dd081161007f578063c23b139e11610059578063c23b139e146101f6578063cad96cca14610209578063cb7aaa5f14610236578063f064c32e14610256576100c2565b80636c03dd081461017a5780638924af741461019a57806397598cc3146101e1576100c2565b80630f08efe0146100c757806312e85585146100f257806313af403514610110578063143094db14610132578063202e37401461015257806358eb2df514610167575b600080fd5b3480156100d357600080fd5b506100dc61026b565b6040516100e99190611b36565b60405180910390f35b3480156100fe57600080fd5b506005546040519081526020016100e9565b34801561011c57600080fd5b5061013061012b3660046119c0565b61043c565b005b34801561013e57600080fd5b5061013061014d366004611a72565b6104bd565b34801561015e57600080fd5b506100dc6105de565b610130610175366004611a0e565b6107ed565b34801561018657600080fd5b50610130610195366004611a42565b610ba5565b3480156101a657600080fd5b506101ba6101b5366004611abe565b610c04565b604080516001600160a01b0390931683526001600160601b039091166020830152016100e9565b3480156101ed57600080fd5b506100dc610c4d565b6101306102043660046119e3565b610dd0565b34801561021557600080fd5b50610229610224366004611a42565b6111f9565b6040516100e99190611bff565b34801561024257600080fd5b506100dc6102513660046119e3565b611288565b34801561026257600080fd5b506100dc611576565b6060600061027860025490565b9050600061028560035490565b6002546102929190611c8a565b90506000808267ffffffffffffffff8111156102be57634e487b7160e01b600052604160045260246000fd5b6040519080825280602002602001820160405280156102f757816020015b6102e4611974565b8152602001906001900390816102dc5790505b50905060005b84811015610433576000600681610315846001611c33565b81526020810191909152604001600020600401546001600160a01b03161415610421576000610345826001611c33565b6000818152600660208181526040928390208351610120810185528154815260018201546001600160a01b039081169382019390935260028201549481019490945260038101548216606085015260048101549091166080840152600581015460a0840152908101546001600160601b03811660c084015260ff600160601b82048116151560e0850152600160681b90910416151561010083015285519293509185908790811061040657634e487b7160e01b600052603260045260246000fd5b602090810291909101015261041c600186611c33565b945050505b8061042b81611cc9565b9150506102fd565b50935050505090565b6004546001600160a01b0316331461049b5760405162461bcd60e51b815260206004820152601a60248201527f596f75206d757374206f776e207468697320636f6e747261637400000000000060448201526064015b60405180910390fd5b600480546001600160a01b0319166001600160a01b0392909216919091179055565b6004546001600160a01b031633146104d457600080fd5b604080516001808252818301909252600091816020015b60408051808201909152600080825260208201528152602001906001900390816104eb579050509050818160008151811061053657634e487b7160e01b600052603260045260246000fd5b6020026020010151602001906001600160601b031690816001600160601b031681525050828160008151811061057c57634e487b7160e01b600052603260045260246000fd5b6020908102919091018101516001600160a01b039092169091526000858152600691829052604090200180546001600160601b0384166dff00ffffffffffffffffffffffff1990911617600160681b1790556105d88482611785565b50505050565b606060006105eb60025490565b905060008060005b8381101561064e57336006600061060b846001611c33565b81526020810191909152604001600020600401546001600160a01b0316141561063c57610639600184611c33565b92505b8061064681611cc9565b9150506105f3565b5060008267ffffffffffffffff81111561067857634e487b7160e01b600052604160045260246000fd5b6040519080825280602002602001820160405280156106b157816020015b61069e611974565b8152602001906001900390816106965790505b50905060005b848110156104335733600660006106cf846001611c33565b81526020810191909152604001600020600401546001600160a01b031614156107db5760006106ff826001611c33565b6000818152600660208181526040928390208351610120810185528154815260018201546001600160a01b039081169382019390935260028201549481019490945260038101548216606085015260048101549091166080840152600581015460a0840152908101546001600160601b03811660c084015260ff600160601b82048116151560e0850152600160681b9091041615156101008301528551929350918590879081106107c057634e487b7160e01b600052603260045260246000fd5b60209081029190910101526107d6600186611c33565b945050505b806107e581611cc9565b9150506106b7565b600260005414156108405760405162461bcd60e51b815260206004820152601f60248201527f5265656e7472616e637947756172643a207265656e7472616e742063616c6c006044820152606401610492565b600260009081556040516370a0823160e01b81523360048201528491906001600160a01b038316906370a082319060240160206040518083038186803b15801561088957600080fd5b505afa15801561089d573d6000803e3d6000fd5b505050506040513d601f19601f820116820180604052508101906108c19190611a5a565b116109065760405162461bcd60e51b8152602060048201526015602482015274165bdd481b5d5cdd081bdddb881d1a1a5cc81b999d605a1b6044820152606401610492565b600082116109565760405162461bcd60e51b815260206004820152601c60248201527f5072696365206d757374206265206174206c65617374203120776569000000006044820152606401610492565b60055434146109b35760405162461bcd60e51b8152602060048201526024808201527f5072696365206d75737420626520657175616c20746f206c697374696e6720706044820152637269636560e01b6064820152608401610492565b6109c1600280546001019055565b60006109cc60025490565b60408051610120810182528281526001600160a01b0388811660208084018281528486018b8152336060870181815260006080890181815260a08a018f815260c08b0183815260e08c018481526101008d018581528f865260069a8b9052948e90209c518d55975160018d018054918d166001600160a01b0319928316179055965160028d0155935160038c018054918c1691881691909117905590516004808c01805492909b1691909616179098559651600589015551969093018054925195511515600160681b0260ff60681b19961515600160601b026cffffffffffffffffffffffffff199094166001600160601b039098169790971792909217949094169490941790935592516323b872dd60e01b81529081019190915230602482015260448101879052919250906323b872dd90606401600060405180830381600087803b158015610b1c57600080fd5b505af1158015610b30573d6000803e3d6000fd5b505060408051338152600060208201819052818301889052606082018190526080820181905260a082015290518793506001600160a01b038916925084917f5b5e7d222a3739505f49b4cecff644061a7b047e085435384b2c5cf3f5c37c99919081900360c00190a450506001600055505050565b6004546001600160a01b03163314610bff5760405162461bcd60e51b815260206004820152601a60248201527f596f75206d757374206f776e207468697320636f6e74726163740000000000006044820152606401610492565b600555565b60016020528160005260406000208181548110610c2057600080fd5b6000918252602090912001546001600160a01b0381169250600160a01b90046001600160601b0316905082565b60606000610c5a60025490565b90506000808267ffffffffffffffff811115610c8657634e487b7160e01b600052604160045260246000fd5b604051908082528060200260200182016040528015610cbf57816020015b610cac611974565b815260200190600190039081610ca45790505b50905060005b83811015610dc8576000610cda826001611c33565b6000818152600660208181526040928390208351610120810185528154815260018201546001600160a01b039081169382019390935260028201549481019490945260038101548216606085015260048101549091166080840152600581015460a0840152908101546001600160601b03811660c084015260ff600160601b82048116151560e0850152600160681b909104161515610100830152855192935091859087908110610d9b57634e487b7160e01b600052603260045260246000fd5b6020908102919091010152610db1600186611c33565b945050508080610dc090611cc9565b915050610cc5565b509250505090565b60026000541415610e235760405162461bcd60e51b815260206004820152601f60248201527f5265656e7472616e637947756172643a207265656e7472616e742063616c6c006044820152606401610492565b600260008181558281526006602052604090206005810154910154348214610eb5576040805162461bcd60e51b81526020600482015260248101919091527f506c65617365207375626d6974207468652061736b696e67207072696365206960448201527f6e206f7264657220746f20636f6d706c657465207468652070757263686173656064820152608401610492565b60008381526006602081905260409091200154600160681b900460ff16156110bc57600083815260016020908152604080832080548251818502810185019093528083529192909190849084015b82821015610f5257600084815260209081902060408051808201909152908401546001600160a01b0381168252600160a01b90046001600160601b031681830152825260019092019101610f03565b5050506000868152600160205260408120805493945092909150610f8657634e487b7160e01b600052603260045260246000fd5b600091825260208220015482516001600160a01b03909116916108fc916064918591610fc257634e487b7160e01b600052603260045260246000fd5b6020026020010151602001516001600160601b031634610fe29190611c6b565b610fec9190611c4b565b6040518115909202916000818181858888f19350505050158015611014573d6000803e3d6000fd5b5060008481526006602052604081206003015482516001600160a01b03909116916108fc91606491859161105857634e487b7160e01b600052603260045260246000fd5b60200260200101516020015160646110709190611ca1565b611083906001600160601b031634611c6b565b61108d9190611c4b565b6040518115909202916000818181858888f193505050501580156110b5573d6000803e3d6000fd5b5050611106565b6000838152600660205260408082206003015490516001600160a01b03909116913480156108fc02929091818181858888f19350505050158015611104573d6000803e3d6000fd5b505b6040516323b872dd60e01b8152306004820152336024820152604481018290526001600160a01b038516906323b872dd90606401600060405180830381600087803b15801561115457600080fd5b505af1158015611168573d6000803e3d6000fd5b50505060008481526006602081905260409091206004810180546001600160a01b0319163317905501805460ff60601b1916600160601b179055506111b1600380546001019055565b6004546005546040516001600160a01b039092169181156108fc0291906000818181858888f193505050501580156111ed573d6000803e3d6000fd5b50506001600055505050565b606060016000838152602001908152602001600020805480602002602001604051908101604052809291908181526020016000905b8282101561127d57600084815260209081902060408051808201909152908401546001600160a01b0381168252600160a01b90046001600160601b03168183015282526001909201910161122e565b505050509050919050565b6060600061129560025490565b905060008060005b838110156113625785600660006112b5846001611c33565b81526020019081526020016000206002015414801561130757506001600160a01b038716600660006112e8846001611c33565b81526020810191909152604001600020600101546001600160a01b0316145b801561133d57506006600061131d836001611c33565b8152602081019190915260400160002060060154600160601b900460ff16155b156113505761134d600184611c33565b92505b8061135a81611cc9565b91505061129d565b5060008267ffffffffffffffff81111561138c57634e487b7160e01b600052604160045260246000fd5b6040519080825280602002602001820160405280156113c557816020015b6113b2611974565b8152602001906001900390816113aa5790505b50905060005b8481101561156b5786600660006113e3846001611c33565b81526020019081526020016000206002015414801561143557506001600160a01b03881660066000611416846001611c33565b81526020810191909152604001600020600101546001600160a01b0316145b801561146b57506006600061144b836001611c33565b8152602081019190915260400160002060060154600160601b900460ff16155b1561155957600061147d826001611c33565b6000818152600660208181526040928390208351610120810185528154815260018201546001600160a01b039081169382019390935260028201549481019490945260038101548216606085015260048101549091166080840152600581015460a0840152908101546001600160601b03811660c084015260ff600160601b82048116151560e0850152600160681b90910416151561010083015285519293509185908790811061153e57634e487b7160e01b600052603260045260246000fd5b6020908102919091010152611554600186611c33565b945050505b8061156381611cc9565b9150506113cb565b509695505050505050565b6060600061158360025490565b905060008060005b838110156115e65733600660006115a3846001611c33565b81526020810191909152604001600020600301546001600160a01b031614156115d4576115d1600184611c33565b92505b806115de81611cc9565b91505061158b565b5060008267ffffffffffffffff81111561161057634e487b7160e01b600052604160045260246000fd5b60405190808252806020026020018201604052801561164957816020015b611636611974565b81526020019060019003908161162e5790505b50905060005b84811015610433573360066000611667846001611c33565b81526020810191909152604001600020600301546001600160a01b03161415611773576000611697826001611c33565b6000818152600660208181526040928390208351610120810185528154815260018201546001600160a01b039081169382019390935260028201549481019490945260038101548216606085015260048101549091166080840152600581015460a0840152908101546001600160601b03811660c084015260ff600160601b82048116151560e0850152600160681b90910416151561010083015285519293509185908790811061175857634e487b7160e01b600052603260045260246000fd5b602090810291909101015261176e600186611c33565b945050505b8061177d81611cc9565b91505061164f565b60005b81518110156119285760006001600160a01b03168282815181106117bc57634e487b7160e01b600052603260045260246000fd5b6020026020010151600001516001600160a01b0316141561181f5760405162461bcd60e51b815260206004820152601b60248201527f526563697069656e742073686f756c642062652070726573656e7400000000006044820152606401610492565b81818151811061183f57634e487b7160e01b600052603260045260246000fd5b6020026020010151602001516001600160601b0316600014156118a45760405162461bcd60e51b815260206004820181905260248201527f526f79616c74792076616c75652073686f756c6420626520706f7369746976656044820152606401610492565b600083815260016020526040902082518390839081106118d457634e487b7160e01b600052603260045260246000fd5b6020908102919091018101518254600181018455600093845292829020815191909201516001600160601b0316600160a01b026001600160a01b03909116179101558061192081611cc9565b915050611788565b506119338282611937565b5050565b7f3fa96d7b6bcbfe71ef171666d84db3cf52fa2d1c8afdb1cc8e486177f208b7df8282604051611968929190611c12565b60405180910390a15050565b6040805161012081018252600080825260208201819052918101829052606081018290526080810182905260a0810182905260c0810182905260e0810182905261010081019190915290565b6000602082840312156119d1578081fd5b81356119dc81611cfa565b9392505050565b600080604083850312156119f5578081fd5b8235611a0081611cfa565b946020939093013593505050565b600080600060608486031215611a22578081fd5b8335611a2d81611cfa565b95602085013595506040909401359392505050565b600060208284031215611a53578081fd5b5035919050565b600060208284031215611a6b578081fd5b5051919050565b600080600060608486031215611a86578283fd5b833592506020840135611a9881611cfa565b915060408401356001600160601b0381168114611ab3578182fd5b809150509250925092565b60008060408385031215611ad0578182fd5b50508035926020909101359150565b6000815180845260208085019450808401835b83811015611b2b57815180516001600160a01b031688528301516001600160601b03168388015260409096019590820190600101611af2565b509495945050505050565b602080825282518282018190526000919060409081850190868401855b82811015611bf257815180518552868101516001600160a01b0316878601528581015186860152606080820151611b94828801826001600160a01b03169052565b50506080818101516001600160a01b03169086015260a0808201519086015260c0808201516001600160601b03169086015260e080820151151590860152610100908101511515908501526101209093019290850190600101611b53565b5091979650505050505050565b6000602082526119dc6020830184611adf565b600083825260406020830152611c2b6040830184611adf565b949350505050565b60008219821115611c4657611c46611ce4565b500190565b600082611c6657634e487b7160e01b81526012600452602481fd5b500490565b6000816000190483118215151615611c8557611c85611ce4565b500290565b600082821015611c9c57611c9c611ce4565b500390565b60006001600160601b0383811690831681811015611cc157611cc1611ce4565b039392505050565b6000600019821415611cdd57611cdd611ce4565b5060010190565b634e487b7160e01b600052601160045260246000fd5b6001600160a01b0381168114611d0f57600080fd5b5056fea2646970667358221220497bc0882a57ce0ac00a1728ed6502943c0672200cdd22808c330e3b0215ab6064736f6c63430008030033",
  "linkReferences": {},
  "deployedLinkReferences": {}
}