{
  "_format": "hh-sol-artifact-1",
  "contractName": "NFTMarket",
  "sourceName": "contracts/Market.sol",
  "abi": [
    {
      "inputs": [],
      "stateMutability": "nonpayable",
      "type": "constructor"
    },
    {
      "anonymous": false,
      "inputs": [
        {
          "indexed": true,
          "internalType": "uint256",
          "name": "itemId",
          "type": "uint256"
        },
        {
          "indexed": true,
          "internalType": "address",
          "name": "nftContract",
          "type": "address"
        },
        {
          "indexed": true,
          "internalType": "uint256",
          "name": "tokenId",
          "type": "uint256"
        },
        {
          "indexed": false,
          "internalType": "address",
          "name": "seller",
          "type": "address"
        },
        {
          "indexed": false,
          "internalType": "address",
          "name": "owner",
          "type": "address"
        },
        {
          "indexed": false,
          "internalType": "uint256",
          "name": "price",
          "type": "uint256"
        },
        {
          "indexed": false,
          "internalType": "bool",
          "name": "sold",
          "type": "bool"
        },
        {
          "indexed": false,
          "internalType": "bool",
          "name": "hasRoyalty",
          "type": "bool"
        }
      ],
      "name": "MarketItemCreated",
      "type": "event"
    },
    {
      "anonymous": false,
      "inputs": [
        {
          "indexed": false,
          "internalType": "uint256",
          "name": "tokenId",
          "type": "uint256"
        },
        {
          "components": [
            {
              "internalType": "address payable",
              "name": "account",
              "type": "address"
            },
            {
              "internalType": "uint96",
              "name": "value",
              "type": "uint96"
            }
          ],
          "indexed": false,
          "internalType": "struct LibPart.Part[]",
          "name": "royalties",
          "type": "tuple[]"
        }
      ],
      "name": "RoyaltiesSet",
      "type": "event"
    },
    {
      "inputs": [
        {
          "internalType": "address",
          "name": "nftContract",
          "type": "address"
        },
        {
          "internalType": "uint256",
          "name": "tokenId",
          "type": "uint256"
        },
        {
          "internalType": "uint256",
          "name": "price",
          "type": "uint256"
        }
      ],
      "name": "createMarketItem",
      "outputs": [],
      "stateMutability": "payable",
      "type": "function"
    },
    {
      "inputs": [
        {
          "internalType": "address",
          "name": "nftContract",
          "type": "address"
        },
        {
          "internalType": "uint256",
          "name": "itemId",
          "type": "uint256"
        }
      ],
      "name": "createMarketSale",
      "outputs": [],
      "stateMutability": "payable",
      "type": "function"
    },
    {
      "inputs": [],
      "name": "fetchAllItems",
      "outputs": [
        {
          "components": [
            {
              "internalType": "uint256",
              "name": "itemId",
              "type": "uint256"
            },
            {
              "internalType": "address",
              "name": "nftContract",
              "type": "address"
            },
            {
              "internalType": "uint256",
              "name": "tokenId",
              "type": "uint256"
            },
            {
              "internalType": "address payable",
              "name": "seller",
              "type": "address"
            },
            {
              "internalType": "address payable",
              "name": "owner",
              "type": "address"
            },
            {
              "internalType": "uint256",
              "name": "price",
              "type": "uint256"
            },
            {
              "internalType": "bool",
              "name": "sold",
              "type": "bool"
            },
            {
              "internalType": "bool",
              "name": "hasRoyalty",
              "type": "bool"
            }
          ],
          "internalType": "struct NFTMarket.MarketItem[]",
          "name": "",
          "type": "tuple[]"
        }
      ],
      "stateMutability": "view",
      "type": "function"
    },
    {
      "inputs": [],
      "name": "fetchItemsCreated",
      "outputs": [
        {
          "components": [
            {
              "internalType": "uint256",
              "name": "itemId",
              "type": "uint256"
            },
            {
              "internalType": "address",
              "name": "nftContract",
              "type": "address"
            },
            {
              "internalType": "uint256",
              "name": "tokenId",
              "type": "uint256"
            },
            {
              "internalType": "address payable",
              "name": "seller",
              "type": "address"
            },
            {
              "internalType": "address payable",
              "name": "owner",
              "type": "address"
            },
            {
              "internalType": "uint256",
              "name": "price",
              "type": "uint256"
            },
            {
              "internalType": "bool",
              "name": "sold",
              "type": "bool"
            },
            {
              "internalType": "bool",
              "name": "hasRoyalty",
              "type": "bool"
            }
          ],
          "internalType": "struct NFTMarket.MarketItem[]",
          "name": "",
          "type": "tuple[]"
        }
      ],
      "stateMutability": "view",
      "type": "function"
    },
    {
      "inputs": [],
      "name": "fetchMarketItems",
      "outputs": [
        {
          "components": [
            {
              "internalType": "uint256",
              "name": "itemId",
              "type": "uint256"
            },
            {
              "internalType": "address",
              "name": "nftContract",
              "type": "address"
            },
            {
              "internalType": "uint256",
              "name": "tokenId",
              "type": "uint256"
            },
            {
              "internalType": "address payable",
              "name": "seller",
              "type": "address"
            },
            {
              "internalType": "address payable",
              "name": "owner",
              "type": "address"
            },
            {
              "internalType": "uint256",
              "name": "price",
              "type": "uint256"
            },
            {
              "internalType": "bool",
              "name": "sold",
              "type": "bool"
            },
            {
              "internalType": "bool",
              "name": "hasRoyalty",
              "type": "bool"
            }
          ],
          "internalType": "struct NFTMarket.MarketItem[]",
          "name": "",
          "type": "tuple[]"
        }
      ],
      "stateMutability": "view",
      "type": "function"
    },
    {
      "inputs": [],
      "name": "fetchMyNFTs",
      "outputs": [
        {
          "components": [
            {
              "internalType": "uint256",
              "name": "itemId",
              "type": "uint256"
            },
            {
              "internalType": "address",
              "name": "nftContract",
              "type": "address"
            },
            {
              "internalType": "uint256",
              "name": "tokenId",
              "type": "uint256"
            },
            {
              "internalType": "address payable",
              "name": "seller",
              "type": "address"
            },
            {
              "internalType": "address payable",
              "name": "owner",
              "type": "address"
            },
            {
              "internalType": "uint256",
              "name": "price",
              "type": "uint256"
            },
            {
              "internalType": "bool",
              "name": "sold",
              "type": "bool"
            },
            {
              "internalType": "bool",
              "name": "hasRoyalty",
              "type": "bool"
            }
          ],
          "internalType": "struct NFTMarket.MarketItem[]",
          "name": "",
          "type": "tuple[]"
        }
      ],
      "stateMutability": "view",
      "type": "function"
    },
    {
      "inputs": [],
      "name": "getListingPrice",
      "outputs": [
        {
          "internalType": "uint256",
          "name": "",
          "type": "uint256"
        }
      ],
      "stateMutability": "view",
      "type": "function"
    },
    {
      "inputs": [
        {
          "internalType": "uint256",
          "name": "itemId",
          "type": "uint256"
        }
      ],
      "name": "getRaribleV2Royalties",
      "outputs": [
        {
          "components": [
            {
              "internalType": "address payable",
              "name": "account",
              "type": "address"
            },
            {
              "internalType": "uint96",
              "name": "value",
              "type": "uint96"
            }
          ],
          "internalType": "struct LibPart.Part[]",
          "name": "",
          "type": "tuple[]"
        }
      ],
      "stateMutability": "view",
      "type": "function"
    },
    {
      "inputs": [
        {
          "internalType": "uint256",
          "name": "",
          "type": "uint256"
        },
        {
          "internalType": "uint256",
          "name": "",
          "type": "uint256"
        }
      ],
      "name": "royalties",
      "outputs": [
        {
          "internalType": "address payable",
          "name": "account",
          "type": "address"
        },
        {
          "internalType": "uint96",
          "name": "value",
          "type": "uint96"
        }
      ],
      "stateMutability": "view",
      "type": "function"
    },
    {
      "inputs": [
        {
          "internalType": "uint256",
          "name": "newlistingPrice",
          "type": "uint256"
        }
      ],
      "name": "setLisitingPrice",
      "outputs": [],
      "stateMutability": "nonpayable",
      "type": "function"
    },
    {
      "inputs": [
        {
          "internalType": "address",
          "name": "newOwner",
          "type": "address"
        }
      ],
      "name": "setOwner",
      "outputs": [],
      "stateMutability": "nonpayable",
      "type": "function"
    },
    {
      "inputs": [
        {
          "internalType": "uint256",
          "name": "itemId",
          "type": "uint256"
        },
        {
          "internalType": "address payable",
          "name": "_royaltiesReceipientAddress",
          "type": "address"
        },
        {
          "internalType": "uint96",
          "name": "_percentageBasisPoints",
          "type": "uint96"
        }
      ],
      "name": "setRoyalties",
      "outputs": [],
      "stateMutability": "nonpayable",
      "type": "function"
    }
  ],
  "bytecode": "0x60806040526658d15e1762800060055534801561001b57600080fd5b506001600055600480546001600160a01b031916331790556119d7806100426000396000f3fe6080604052600436106100a75760003560e01c80636c03dd08116100645780636c03dd081461015f5780638924af741461017f57806397598cc3146101c6578063c23b139e146101db578063cad96cca146101ee578063f064c32e1461021b576100a7565b80630f08efe0146100ac57806312e85585146100d757806313af4035146100f5578063143094db14610117578063202e37401461013757806358eb2df51461014c575b600080fd5b3480156100b857600080fd5b506100c1610230565b6040516100ce91906117ed565b60405180910390f35b3480156100e357600080fd5b506005546040519081526020016100ce565b34801561010157600080fd5b50610115610110366004611677565b6103e9565b005b34801561012357600080fd5b50610115610132366004611729565b61046a565b34801561014357600080fd5b506100c1610570565b61011561015a3660046116c5565b610767565b34801561016b57600080fd5b5061011561017a3660046116f9565b610b8a565b34801561018b57600080fd5b5061019f61019a366004611775565b610be9565b604080516001600160a01b0390931683526001600160601b039091166020830152016100ce565b3480156101d257600080fd5b506100c1610c32565b6101156101e936600461169a565b610d9d565b3480156101fa57600080fd5b5061020e6102093660046116f9565b6111be565b6040516100ce919061188e565b34801561022757600080fd5b506100c161124d565b6060600061023d60025490565b9050600061024a60035490565b6002546102579190611919565b90506000808267ffffffffffffffff81111561028357634e487b7160e01b600052604160045260246000fd5b6040519080825280602002602001820160405280156102bc57816020015b6102a9611633565b8152602001906001900390816102a15790505b50905060005b848110156103e05760006006816102da8460016118c2565b81526020810191909152604001600020600401546001600160a01b031614156103ce57600061030a8260016118c2565b600081815260066020818152604092839020835161010080820186528254825260018301546001600160a01b039081169483019490945260028301549582019590955260038201548316606082015260048201549092166080830152600581015460a08301529182015460ff808216151560c0840152939004909216151560e08301528551929350918590879081106103b357634e487b7160e01b600052603260045260246000fd5b60209081029190910101526103c96001866118c2565b945050505b806103d881611958565b9150506102c2565b50935050505090565b6004546001600160a01b031633146104485760405162461bcd60e51b815260206004820152601a60248201527f596f75206d757374206f776e207468697320636f6e747261637400000000000060448201526064015b60405180910390fd5b600480546001600160a01b0319166001600160a01b0392909216919091179055565b6004546001600160a01b0316331461048157600080fd5b604080516001808252818301909252600091816020015b604080518082019091526000808252602082015281526020019060019003908161049857905050905081816000815181106104e357634e487b7160e01b600052603260045260246000fd5b6020026020010151602001906001600160601b031690816001600160601b031681525050828160008151811061052957634e487b7160e01b600052603260045260246000fd5b6020908102919091018101516001600160a01b0390921690915260008581526006918290526040902001805461ff00191661010017905561056a8482611444565b50505050565b6060600061057d60025490565b905060008060005b838110156105e057336006600061059d8460016118c2565b81526020810191909152604001600020600401546001600160a01b031614156105ce576105cb6001846118c2565b92505b806105d881611958565b915050610585565b5060008267ffffffffffffffff81111561060a57634e487b7160e01b600052604160045260246000fd5b60405190808252806020026020018201604052801561064357816020015b610630611633565b8152602001906001900390816106285790505b50905060005b848110156103e05733600660006106618460016118c2565b81526020810191909152604001600020600401546001600160a01b031614156107555760006106918260016118c2565b600081815260066020818152604092839020835161010080820186528254825260018301546001600160a01b039081169483019490945260028301549582019590955260038201548316606082015260048201549092166080830152600581015460a08301529182015460ff808216151560c0840152939004909216151560e083015285519293509185908790811061073a57634e487b7160e01b600052603260045260246000fd5b60209081029190910101526107506001866118c2565b945050505b8061075f81611958565b915050610649565b600260005414156107ba5760405162461bcd60e51b815260206004820152601f60248201527f5265656e7472616e637947756172643a207265656e7472616e742063616c6c00604482015260640161043f565b600260009081556040516370a0823160e01b81523360048201528491906001600160a01b038316906370a082319060240160206040518083038186803b15801561080357600080fd5b505afa158015610817573d6000803e3d6000fd5b505050506040513d601f19601f8201168201806040525081019061083b9190611711565b116108805760405162461bcd60e51b8152602060048201526015602482015274165bdd481b5d5cdd081bdddb881d1a1a5cc81b999d605a1b604482015260640161043f565b600082116108d05760405162461bcd60e51b815260206004820152601c60248201527f5072696365206d757374206265206174206c6561737420312077656900000000604482015260640161043f565b600554341461092d5760405162461bcd60e51b8152602060048201526024808201527f5072696365206d75737420626520657175616c20746f206c697374696e6720706044820152637269636560e01b606482015260840161043f565b61093b600280546001019055565b600061094660025490565b9050604051806101000160405280828152602001866001600160a01b03168152602001858152602001336001600160a01b0316815260200160006001600160a01b0316815260200184815260200160001515815260200160001515815250600660008381526020019081526020016000206000820151816000015560208201518160010160006101000a8154816001600160a01b0302191690836001600160a01b031602179055506040820151816002015560608201518160030160006101000a8154816001600160a01b0302191690836001600160a01b0316021790555060808201518160040160006101000a8154816001600160a01b0302191690836001600160a01b0316021790555060a0820151816005015560c08201518160060160006101000a81548160ff02191690831515021790555060e08201518160060160016101000a81548160ff021916908315150217905550905050846001600160a01b03166323b872dd3330876040518463ffffffff1660e01b8152600401610aee939291906001600160a01b039384168152919092166020820152604081019190915260600190565b600060405180830381600087803b158015610b0857600080fd5b505af1158015610b1c573d6000803e3d6000fd5b50506040805133815260006020820181905281830188905260608201819052608082015290518793506001600160a01b038916925084917fc99151f4453170a67bc7441775fde1a3bc3220c06645df1121e703aab5e7da5d919081900360a00190a450506001600055505050565b6004546001600160a01b03163314610be45760405162461bcd60e51b815260206004820152601a60248201527f596f75206d757374206f776e207468697320636f6e7472616374000000000000604482015260640161043f565b600555565b60016020528160005260406000208181548110610c0557600080fd5b6000918252602090912001546001600160a01b0381169250600160a01b90046001600160601b0316905082565b60606000610c3f60025490565b90506000808267ffffffffffffffff811115610c6b57634e487b7160e01b600052604160045260246000fd5b604051908082528060200260200182016040528015610ca457816020015b610c91611633565b815260200190600190039081610c895790505b50905060005b83811015610d95576000610cbf8260016118c2565b600081815260066020818152604092839020835161010080820186528254825260018301546001600160a01b039081169483019490945260028301549582019590955260038201548316606082015260048201549092166080830152600581015460a08301529182015460ff808216151560c0840152939004909216151560e0830152855192935091859087908110610d6857634e487b7160e01b600052603260045260246000fd5b6020908102919091010152610d7e6001866118c2565b945050508080610d8d90611958565b915050610caa565b509250505090565b60026000541415610df05760405162461bcd60e51b815260206004820152601f60248201527f5265656e7472616e637947756172643a207265656e7472616e742063616c6c00604482015260640161043f565b600260008181558281526006602052604090206005810154910154348214610e82576040805162461bcd60e51b81526020600482015260248101919091527f506c65617365207375626d6974207468652061736b696e67207072696365206960448201527f6e206f7264657220746f20636f6d706c65746520746865207075726368617365606482015260840161043f565b60008381526006602081905260409091200154610100900460ff161561108757600083815260016020908152604080832080548251818502810185019093528083529192909190849084015b82821015610f1d57600084815260209081902060408051808201909152908401546001600160a01b0381168252600160a01b90046001600160601b031681830152825260019092019101610ece565b5050506000868152600160205260408120805493945092909150610f5157634e487b7160e01b600052603260045260246000fd5b600091825260208220015482516001600160a01b03909116916108fc916064918591610f8d57634e487b7160e01b600052603260045260246000fd5b6020026020010151602001516001600160601b031634610fad91906118fa565b610fb791906118da565b6040518115909202916000818181858888f19350505050158015610fdf573d6000803e3d6000fd5b5060008481526006602052604081206003015482516001600160a01b03909116916108fc91606491859161102357634e487b7160e01b600052603260045260246000fd5b602002602001015160200151606461103b9190611930565b61104e906001600160601b0316346118fa565b61105891906118da565b6040518115909202916000818181858888f19350505050158015611080573d6000803e3d6000fd5b50506110d1565b6000838152600660205260408082206003015490516001600160a01b03909116913480156108fc02929091818181858888f193505050501580156110cf573d6000803e3d6000fd5b505b6040516323b872dd60e01b8152306004820152336024820152604481018290526001600160a01b038516906323b872dd90606401600060405180830381600087803b15801561111f57600080fd5b505af1158015611133573d6000803e3d6000fd5b50505060008481526006602081905260409091206004810180546001600160a01b0319163317905501805460ff1916600117905550611176600380546001019055565b6004546005546040516001600160a01b039092169181156108fc0291906000818181858888f193505050501580156111b2573d6000803e3d6000fd5b50506001600055505050565b606060016000838152602001908152602001600020805480602002602001604051908101604052809291908181526020016000905b8282101561124257600084815260209081902060408051808201909152908401546001600160a01b0381168252600160a01b90046001600160601b0316818301528252600190920191016111f3565b505050509050919050565b6060600061125a60025490565b905060008060005b838110156112bd57336006600061127a8460016118c2565b81526020810191909152604001600020600301546001600160a01b031614156112ab576112a86001846118c2565b92505b806112b581611958565b915050611262565b5060008267ffffffffffffffff8111156112e757634e487b7160e01b600052604160045260246000fd5b60405190808252806020026020018201604052801561132057816020015b61130d611633565b8152602001906001900390816113055790505b50905060005b848110156103e057336006600061133e8460016118c2565b81526020810191909152604001600020600301546001600160a01b0316141561143257600061136e8260016118c2565b600081815260066020818152604092839020835161010080820186528254825260018301546001600160a01b039081169483019490945260028301549582019590955260038201548316606082015260048201549092166080830152600581015460a08301529182015460ff808216151560c0840152939004909216151560e083015285519293509185908790811061141757634e487b7160e01b600052603260045260246000fd5b602090810291909101015261142d6001866118c2565b945050505b8061143c81611958565b915050611326565b60005b81518110156115e75760006001600160a01b031682828151811061147b57634e487b7160e01b600052603260045260246000fd5b6020026020010151600001516001600160a01b031614156114de5760405162461bcd60e51b815260206004820152601b60248201527f526563697069656e742073686f756c642062652070726573656e740000000000604482015260640161043f565b8181815181106114fe57634e487b7160e01b600052603260045260246000fd5b6020026020010151602001516001600160601b0316600014156115635760405162461bcd60e51b815260206004820181905260248201527f526f79616c74792076616c75652073686f756c6420626520706f736974697665604482015260640161043f565b6000838152600160205260409020825183908390811061159357634e487b7160e01b600052603260045260246000fd5b6020908102919091018101518254600181018455600093845292829020815191909201516001600160601b0316600160a01b026001600160a01b0390911617910155806115df81611958565b915050611447565b506115f282826115f6565b5050565b7f3fa96d7b6bcbfe71ef171666d84db3cf52fa2d1c8afdb1cc8e486177f208b7df82826040516116279291906118a1565b60405180910390a15050565b6040805161010081018252600080825260208201819052918101829052606081018290526080810182905260a0810182905260c0810182905260e081019190915290565b600060208284031215611688578081fd5b813561169381611989565b9392505050565b600080604083850312156116ac578081fd5b82356116b781611989565b946020939093013593505050565b6000806000606084860312156116d9578081fd5b83356116e481611989565b95602085013595506040909401359392505050565b60006020828403121561170a578081fd5b5035919050565b600060208284031215611722578081fd5b5051919050565b60008060006060848603121561173d578283fd5b83359250602084013561174f81611989565b915060408401356001600160601b038116811461176a578182fd5b809150509250925092565b60008060408385031215611787578182fd5b50508035926020909101359150565b6000815180845260208085019450808401835b838110156117e257815180516001600160a01b031688528301516001600160601b031683880152604090960195908201906001016117a9565b509495945050505050565b602080825282518282018190526000919060409081850190868401855b8281101561188157815180518552868101516001600160a01b039081168887015286820151878701526060808301518216908701526080808301519091169086015260a0808201519086015260c08082015115159086015260e090810151151590850152610100909301929085019060010161180a565b5091979650505050505050565b6000602082526116936020830184611796565b6000838252604060208301526118ba6040830184611796565b949350505050565b600082198211156118d5576118d5611973565b500190565b6000826118f557634e487b7160e01b81526012600452602481fd5b500490565b600081600019048311821515161561191457611914611973565b500290565b60008282101561192b5761192b611973565b500390565b60006001600160601b038381169083168181101561195057611950611973565b039392505050565b600060001982141561196c5761196c611973565b5060010190565b634e487b7160e01b600052601160045260246000fd5b6001600160a01b038116811461199e57600080fd5b5056fea264697066735822122034a011c75ff9a3b10735fb23aae9df8f7cce3624db89703589b19fe15fa3658e64736f6c63430008030033",
  "linkReferences": {},
  "deployedLinkReferences": {}
}