{
  "_format": "hh-sol-artifact-1",
  "contractName": "NFTMarket",
  "sourceName": "contracts/Market.sol",
  "abi": [
    {
      "inputs": [],
      "stateMutability": "nonpayable",
      "type": "constructor"
    },
    {
      "anonymous": false,
      "inputs": [
        {
          "indexed": true,
          "internalType": "uint256",
          "name": "itemId",
          "type": "uint256"
        },
        {
          "indexed": true,
          "internalType": "address",
          "name": "nftContract",
          "type": "address"
        },
        {
          "indexed": true,
          "internalType": "uint256",
          "name": "tokenId",
          "type": "uint256"
        },
        {
          "indexed": false,
          "internalType": "address",
          "name": "seller",
          "type": "address"
        },
        {
          "indexed": false,
          "internalType": "address",
          "name": "owner",
          "type": "address"
        },
        {
          "indexed": false,
          "internalType": "uint256",
          "name": "price",
          "type": "uint256"
        },
        {
          "indexed": false,
          "internalType": "bool",
          "name": "sold",
          "type": "bool"
        },
        {
          "indexed": false,
          "internalType": "bool",
          "name": "hasRoyalty",
          "type": "bool"
        }
      ],
      "name": "MarketItemCreated",
      "type": "event"
    },
    {
      "anonymous": false,
      "inputs": [
        {
          "indexed": false,
          "internalType": "uint256",
          "name": "tokenId",
          "type": "uint256"
        },
        {
          "components": [
            {
              "internalType": "address payable",
              "name": "account",
              "type": "address"
            },
            {
              "internalType": "uint96",
              "name": "value",
              "type": "uint96"
            }
          ],
          "indexed": false,
          "internalType": "struct LibPart.Part[]",
          "name": "royalties",
          "type": "tuple[]"
        }
      ],
      "name": "RoyaltiesSet",
      "type": "event"
    },
    {
      "inputs": [
        {
          "internalType": "address",
          "name": "nftContract",
          "type": "address"
        },
        {
          "internalType": "uint256",
          "name": "tokenId",
          "type": "uint256"
        },
        {
          "internalType": "uint256",
          "name": "price",
          "type": "uint256"
        }
      ],
      "name": "createMarketItem",
      "outputs": [],
      "stateMutability": "payable",
      "type": "function"
    },
    {
      "inputs": [
        {
          "internalType": "address",
          "name": "nftContract",
          "type": "address"
        },
        {
          "internalType": "uint256",
          "name": "itemId",
          "type": "uint256"
        }
      ],
      "name": "createMarketSale",
      "outputs": [],
      "stateMutability": "payable",
      "type": "function"
    },
    {
      "inputs": [],
      "name": "fetchAllItems",
      "outputs": [
        {
          "components": [
            {
              "internalType": "uint256",
              "name": "itemId",
              "type": "uint256"
            },
            {
              "internalType": "address",
              "name": "nftContract",
              "type": "address"
            },
            {
              "internalType": "uint256",
              "name": "tokenId",
              "type": "uint256"
            },
            {
              "internalType": "address payable",
              "name": "seller",
              "type": "address"
            },
            {
              "internalType": "address payable",
              "name": "owner",
              "type": "address"
            },
            {
              "internalType": "uint256",
              "name": "price",
              "type": "uint256"
            },
            {
              "internalType": "bool",
              "name": "sold",
              "type": "bool"
            },
            {
              "internalType": "bool",
              "name": "hasRoyalty",
              "type": "bool"
            }
          ],
          "internalType": "struct NFTMarket.MarketItem[]",
          "name": "",
          "type": "tuple[]"
        }
      ],
      "stateMutability": "view",
      "type": "function"
    },
    {
      "inputs": [],
      "name": "fetchItemsCreated",
      "outputs": [
        {
          "components": [
            {
              "internalType": "uint256",
              "name": "itemId",
              "type": "uint256"
            },
            {
              "internalType": "address",
              "name": "nftContract",
              "type": "address"
            },
            {
              "internalType": "uint256",
              "name": "tokenId",
              "type": "uint256"
            },
            {
              "internalType": "address payable",
              "name": "seller",
              "type": "address"
            },
            {
              "internalType": "address payable",
              "name": "owner",
              "type": "address"
            },
            {
              "internalType": "uint256",
              "name": "price",
              "type": "uint256"
            },
            {
              "internalType": "bool",
              "name": "sold",
              "type": "bool"
            },
            {
              "internalType": "bool",
              "name": "hasRoyalty",
              "type": "bool"
            }
          ],
          "internalType": "struct NFTMarket.MarketItem[]",
          "name": "",
          "type": "tuple[]"
        }
      ],
      "stateMutability": "view",
      "type": "function"
    },
    {
      "inputs": [],
      "name": "fetchMarketItems",
      "outputs": [
        {
          "components": [
            {
              "internalType": "uint256",
              "name": "itemId",
              "type": "uint256"
            },
            {
              "internalType": "address",
              "name": "nftContract",
              "type": "address"
            },
            {
              "internalType": "uint256",
              "name": "tokenId",
              "type": "uint256"
            },
            {
              "internalType": "address payable",
              "name": "seller",
              "type": "address"
            },
            {
              "internalType": "address payable",
              "name": "owner",
              "type": "address"
            },
            {
              "internalType": "uint256",
              "name": "price",
              "type": "uint256"
            },
            {
              "internalType": "bool",
              "name": "sold",
              "type": "bool"
            },
            {
              "internalType": "bool",
              "name": "hasRoyalty",
              "type": "bool"
            }
          ],
          "internalType": "struct NFTMarket.MarketItem[]",
          "name": "",
          "type": "tuple[]"
        }
      ],
      "stateMutability": "view",
      "type": "function"
    },
    {
      "inputs": [],
      "name": "fetchMyNFTs",
      "outputs": [
        {
          "components": [
            {
              "internalType": "uint256",
              "name": "itemId",
              "type": "uint256"
            },
            {
              "internalType": "address",
              "name": "nftContract",
              "type": "address"
            },
            {
              "internalType": "uint256",
              "name": "tokenId",
              "type": "uint256"
            },
            {
              "internalType": "address payable",
              "name": "seller",
              "type": "address"
            },
            {
              "internalType": "address payable",
              "name": "owner",
              "type": "address"
            },
            {
              "internalType": "uint256",
              "name": "price",
              "type": "uint256"
            },
            {
              "internalType": "bool",
              "name": "sold",
              "type": "bool"
            },
            {
              "internalType": "bool",
              "name": "hasRoyalty",
              "type": "bool"
            }
          ],
          "internalType": "struct NFTMarket.MarketItem[]",
          "name": "",
          "type": "tuple[]"
        }
      ],
      "stateMutability": "view",
      "type": "function"
    },
    {
      "inputs": [],
      "name": "getListingPrice",
      "outputs": [
        {
          "internalType": "uint256",
          "name": "",
          "type": "uint256"
        }
      ],
      "stateMutability": "view",
      "type": "function"
    },
    {
      "inputs": [
        {
          "internalType": "uint256",
          "name": "itemId",
          "type": "uint256"
        }
      ],
      "name": "getRaribleV2Royalties",
      "outputs": [
        {
          "components": [
            {
              "internalType": "address payable",
              "name": "account",
              "type": "address"
            },
            {
              "internalType": "uint96",
              "name": "value",
              "type": "uint96"
            }
          ],
          "internalType": "struct LibPart.Part[]",
          "name": "",
          "type": "tuple[]"
        }
      ],
      "stateMutability": "view",
      "type": "function"
    },
    {
      "inputs": [
        {
          "internalType": "uint256",
          "name": "",
          "type": "uint256"
        },
        {
          "internalType": "uint256",
          "name": "",
          "type": "uint256"
        }
      ],
      "name": "royalties",
      "outputs": [
        {
          "internalType": "address payable",
          "name": "account",
          "type": "address"
        },
        {
          "internalType": "uint96",
          "name": "value",
          "type": "uint96"
        }
      ],
      "stateMutability": "view",
      "type": "function"
    },
    {
      "inputs": [
        {
          "internalType": "uint256",
          "name": "itemId",
          "type": "uint256"
        },
        {
          "internalType": "address payable",
          "name": "_royaltiesReceipientAddress",
          "type": "address"
        },
        {
          "internalType": "uint96",
          "name": "_percentageBasisPoints",
          "type": "uint96"
        }
      ],
      "name": "setRoyalties",
      "outputs": [],
      "stateMutability": "nonpayable",
      "type": "function"
    }
  ],
  "bytecode": "0x60806040526658d15e1762800060055534801561001b57600080fd5b506001600055600480546001600160a01b0319163317905561188a806100426000396000f3fe6080604052600436106100915760003560e01c80638924af74116100595780638924af741461012957806397598cc314610170578063c23b139e14610185578063cad96cca14610198578063f064c32e146101c557610091565b80630f08efe01461009657806312e85585146100c1578063143094db146100df578063202e37401461010157806358eb2df514610116575b600080fd5b3480156100a257600080fd5b506100ab6101da565b6040516100b89190611699565b60405180910390f35b3480156100cd57600080fd5b506005546040519081526020016100b8565b3480156100eb57600080fd5b506100ff6100fa3660046115d5565b610393565b005b34801561010d57600080fd5b506100ab610499565b6100ff610124366004611571565b610690565b34801561013557600080fd5b50610149610144366004611621565b610ab8565b604080516001600160a01b0390931683526001600160601b039091166020830152016100b8565b34801561017c57600080fd5b506100ab610b01565b6100ff610193366004611546565b610c6c565b3480156101a457600080fd5b506101b86101b33660046115a5565b61108d565b6040516100b8919061173a565b3480156101d157600080fd5b506100ab61111c565b606060006101e760025490565b905060006101f460035490565b60025461020191906117cc565b90506000808267ffffffffffffffff81111561022d57634e487b7160e01b600052604160045260246000fd5b60405190808252806020026020018201604052801561026657816020015b610253611502565b81526020019060019003908161024b5790505b50905060005b8481101561038a576000600681610284846001611775565b81526020810191909152604001600020600401546001600160a01b031614156103785760006102b4826001611775565b600081815260066020818152604092839020835161010080820186528254825260018301546001600160a01b039081169483019490945260028301549582019590955260038201548316606082015260048201549092166080830152600581015460a08301529182015460ff808216151560c0840152939004909216151560e083015285519293509185908790811061035d57634e487b7160e01b600052603260045260246000fd5b6020908102919091010152610373600186611775565b945050505b806103828161180b565b91505061026c565b50935050505090565b6004546001600160a01b031633146103aa57600080fd5b604080516001808252818301909252600091816020015b60408051808201909152600080825260208201528152602001906001900390816103c1579050509050818160008151811061040c57634e487b7160e01b600052603260045260246000fd5b6020026020010151602001906001600160601b031690816001600160601b031681525050828160008151811061045257634e487b7160e01b600052603260045260246000fd5b6020908102919091018101516001600160a01b0390921690915260008581526006918290526040902001805461ff0019166101001790556104938482611313565b50505050565b606060006104a660025490565b905060008060005b838110156105095733600660006104c6846001611775565b81526020810191909152604001600020600401546001600160a01b031614156104f7576104f4600184611775565b92505b806105018161180b565b9150506104ae565b5060008267ffffffffffffffff81111561053357634e487b7160e01b600052604160045260246000fd5b60405190808252806020026020018201604052801561056c57816020015b610559611502565b8152602001906001900390816105515790505b50905060005b8481101561038a57336006600061058a846001611775565b81526020810191909152604001600020600401546001600160a01b0316141561067e5760006105ba826001611775565b600081815260066020818152604092839020835161010080820186528254825260018301546001600160a01b039081169483019490945260028301549582019590955260038201548316606082015260048201549092166080830152600581015460a08301529182015460ff808216151560c0840152939004909216151560e083015285519293509185908790811061066357634e487b7160e01b600052603260045260246000fd5b6020908102919091010152610679600186611775565b945050505b806106888161180b565b915050610572565b600260005414156106e85760405162461bcd60e51b815260206004820152601f60248201527f5265656e7472616e637947756172643a207265656e7472616e742063616c6c0060448201526064015b60405180910390fd5b600260009081556040516370a0823160e01b81523360048201528491906001600160a01b038316906370a082319060240160206040518083038186803b15801561073157600080fd5b505afa158015610745573d6000803e3d6000fd5b505050506040513d601f19601f8201168201806040525081019061076991906115bd565b116107ae5760405162461bcd60e51b8152602060048201526015602482015274165bdd481b5d5cdd081bdddb881d1a1a5cc81b999d605a1b60448201526064016106df565b600082116107fe5760405162461bcd60e51b815260206004820152601c60248201527f5072696365206d757374206265206174206c656173742031207765690000000060448201526064016106df565b600554341461085b5760405162461bcd60e51b8152602060048201526024808201527f5072696365206d75737420626520657175616c20746f206c697374696e6720706044820152637269636560e01b60648201526084016106df565b610869600280546001019055565b600061087460025490565b9050604051806101000160405280828152602001866001600160a01b03168152602001858152602001336001600160a01b0316815260200160006001600160a01b0316815260200184815260200160001515815260200160001515815250600660008381526020019081526020016000206000820151816000015560208201518160010160006101000a8154816001600160a01b0302191690836001600160a01b031602179055506040820151816002015560608201518160030160006101000a8154816001600160a01b0302191690836001600160a01b0316021790555060808201518160040160006101000a8154816001600160a01b0302191690836001600160a01b0316021790555060a0820151816005015560c08201518160060160006101000a81548160ff02191690831515021790555060e08201518160060160016101000a81548160ff021916908315150217905550905050846001600160a01b03166323b872dd3330876040518463ffffffff1660e01b8152600401610a1c939291906001600160a01b039384168152919092166020820152604081019190915260600190565b600060405180830381600087803b158015610a3657600080fd5b505af1158015610a4a573d6000803e3d6000fd5b50506040805133815260006020820181905281830188905260608201819052608082015290518793506001600160a01b038916925084917fc99151f4453170a67bc7441775fde1a3bc3220c06645df1121e703aab5e7da5d919081900360a00190a450506001600055505050565b60016020528160005260406000208181548110610ad457600080fd5b6000918252602090912001546001600160a01b0381169250600160a01b90046001600160601b0316905082565b60606000610b0e60025490565b90506000808267ffffffffffffffff811115610b3a57634e487b7160e01b600052604160045260246000fd5b604051908082528060200260200182016040528015610b7357816020015b610b60611502565b815260200190600190039081610b585790505b50905060005b83811015610c64576000610b8e826001611775565b600081815260066020818152604092839020835161010080820186528254825260018301546001600160a01b039081169483019490945260028301549582019590955260038201548316606082015260048201549092166080830152600581015460a08301529182015460ff808216151560c0840152939004909216151560e0830152855192935091859087908110610c3757634e487b7160e01b600052603260045260246000fd5b6020908102919091010152610c4d600186611775565b945050508080610c5c9061180b565b915050610b79565b509250505090565b60026000541415610cbf5760405162461bcd60e51b815260206004820152601f60248201527f5265656e7472616e637947756172643a207265656e7472616e742063616c6c0060448201526064016106df565b600260008181558281526006602052604090206005810154910154348214610d51576040805162461bcd60e51b81526020600482015260248101919091527f506c65617365207375626d6974207468652061736b696e67207072696365206960448201527f6e206f7264657220746f20636f6d706c6574652074686520707572636861736560648201526084016106df565b60008381526006602081905260409091200154610100900460ff1615610f5657600083815260016020908152604080832080548251818502810185019093528083529192909190849084015b82821015610dec57600084815260209081902060408051808201909152908401546001600160a01b0381168252600160a01b90046001600160601b031681830152825260019092019101610d9d565b5050506000868152600160205260408120805493945092909150610e2057634e487b7160e01b600052603260045260246000fd5b600091825260208220015482516001600160a01b03909116916108fc916064918591610e5c57634e487b7160e01b600052603260045260246000fd5b6020026020010151602001516001600160601b031634610e7c91906117ad565b610e86919061178d565b6040518115909202916000818181858888f19350505050158015610eae573d6000803e3d6000fd5b5060008481526006602052604081206003015482516001600160a01b03909116916108fc916064918591610ef257634e487b7160e01b600052603260045260246000fd5b6020026020010151602001516064610f0a91906117e3565b610f1d906001600160601b0316346117ad565b610f27919061178d565b6040518115909202916000818181858888f19350505050158015610f4f573d6000803e3d6000fd5b5050610fa0565b6000838152600660205260408082206003015490516001600160a01b03909116913480156108fc02929091818181858888f19350505050158015610f9e573d6000803e3d6000fd5b505b6040516323b872dd60e01b8152306004820152336024820152604481018290526001600160a01b038516906323b872dd90606401600060405180830381600087803b158015610fee57600080fd5b505af1158015611002573d6000803e3d6000fd5b50505060008481526006602081905260409091206004810180546001600160a01b0319163317905501805460ff1916600117905550611045600380546001019055565b6004546005546040516001600160a01b039092169181156108fc0291906000818181858888f19350505050158015611081573d6000803e3d6000fd5b50506001600055505050565b606060016000838152602001908152602001600020805480602002602001604051908101604052809291908181526020016000905b8282101561111157600084815260209081902060408051808201909152908401546001600160a01b0381168252600160a01b90046001600160601b0316818301528252600190920191016110c2565b505050509050919050565b6060600061112960025490565b905060008060005b8381101561118c573360066000611149846001611775565b81526020810191909152604001600020600301546001600160a01b0316141561117a57611177600184611775565b92505b806111848161180b565b915050611131565b5060008267ffffffffffffffff8111156111b657634e487b7160e01b600052604160045260246000fd5b6040519080825280602002602001820160405280156111ef57816020015b6111dc611502565b8152602001906001900390816111d45790505b50905060005b8481101561038a57336006600061120d846001611775565b81526020810191909152604001600020600301546001600160a01b0316141561130157600061123d826001611775565b600081815260066020818152604092839020835161010080820186528254825260018301546001600160a01b039081169483019490945260028301549582019590955260038201548316606082015260048201549092166080830152600581015460a08301529182015460ff808216151560c0840152939004909216151560e08301528551929350918590879081106112e657634e487b7160e01b600052603260045260246000fd5b60209081029190910101526112fc600186611775565b945050505b8061130b8161180b565b9150506111f5565b60005b81518110156114b65760006001600160a01b031682828151811061134a57634e487b7160e01b600052603260045260246000fd5b6020026020010151600001516001600160a01b031614156113ad5760405162461bcd60e51b815260206004820152601b60248201527f526563697069656e742073686f756c642062652070726573656e74000000000060448201526064016106df565b8181815181106113cd57634e487b7160e01b600052603260045260246000fd5b6020026020010151602001516001600160601b0316600014156114325760405162461bcd60e51b815260206004820181905260248201527f526f79616c74792076616c75652073686f756c6420626520706f73697469766560448201526064016106df565b6000838152600160205260409020825183908390811061146257634e487b7160e01b600052603260045260246000fd5b6020908102919091018101518254600181018455600093845292829020815191909201516001600160601b0316600160a01b026001600160a01b0390911617910155806114ae8161180b565b915050611316565b506114c182826114c5565b5050565b7f3fa96d7b6bcbfe71ef171666d84db3cf52fa2d1c8afdb1cc8e486177f208b7df82826040516114f6929190611754565b60405180910390a15050565b6040805161010081018252600080825260208201819052918101829052606081018290526080810182905260a0810182905260c0810182905260e081019190915290565b60008060408385031215611558578182fd5b82356115638161183c565b946020939093013593505050565b600080600060608486031215611585578081fd5b83356115908161183c565b95602085013595506040909401359392505050565b6000602082840312156115b6578081fd5b5035919050565b6000602082840312156115ce578081fd5b5051919050565b6000806000606084860312156115e9578283fd5b8335925060208401356115fb8161183c565b915060408401356001600160601b0381168114611616578182fd5b809150509250925092565b60008060408385031215611633578182fd5b50508035926020909101359150565b6000815180845260208085019450808401835b8381101561168e57815180516001600160a01b031688528301516001600160601b03168388015260409096019590820190600101611655565b509495945050505050565b602080825282518282018190526000919060409081850190868401855b8281101561172d57815180518552868101516001600160a01b039081168887015286820151878701526060808301518216908701526080808301519091169086015260a0808201519086015260c08082015115159086015260e09081015115159085015261010090930192908501906001016116b6565b5091979650505050505050565b60006020825261174d6020830184611642565b9392505050565b60008382526040602083015261176d6040830184611642565b949350505050565b6000821982111561178857611788611826565b500190565b6000826117a857634e487b7160e01b81526012600452602481fd5b500490565b60008160001904831182151516156117c7576117c7611826565b500290565b6000828210156117de576117de611826565b500390565b60006001600160601b038381169083168181101561180357611803611826565b039392505050565b600060001982141561181f5761181f611826565b5060010190565b634e487b7160e01b600052601160045260246000fd5b6001600160a01b038116811461185157600080fd5b5056fea26469706673582212200744bd93285752dca629dffba58d1dfa96fd88fd3daa04feb12eefdc9b6a260964736f6c63430008030033",
  "linkReferences": {},
  "deployedLinkReferences": {}
}